{
  "contractName": "Escrow",
  "abi": [
    {
      "anonymous": false,
      "inputs": [
        {
          "indexed": true,
          "internalType": "uint256",
          "name": "orderId",
          "type": "uint256"
        },
        {
          "indexed": true,
          "internalType": "address",
          "name": "customer",
          "type": "address"
        },
        {
          "indexed": false,
          "internalType": "uint256",
          "name": "value",
          "type": "uint256"
        },
        {
          "indexed": false,
          "internalType": "enum Escrow.PaymentStatus",
          "name": "status",
          "type": "uint8"
        },
        {
          "indexed": true,
          "internalType": "address",
          "name": "reciver",
          "type": "address"
        }
      ],
      "name": "PaymentCompletion",
      "type": "event"
    },
    {
      "anonymous": false,
      "inputs": [
        {
          "indexed": true,
          "internalType": "uint256",
          "name": "orderId",
          "type": "uint256"
        },
        {
          "indexed": true,
          "internalType": "address",
          "name": "customer",
          "type": "address"
        },
        {
          "indexed": false,
          "internalType": "uint256",
          "name": "value",
          "type": "uint256"
        }
      ],
      "name": "PaymentCreation",
      "type": "event"
    },
    {
      "constant": true,
      "inputs": [],
      "name": "collectionAddress",
      "outputs": [
        {
          "internalType": "address",
          "name": "",
          "type": "address"
        }
      ],
      "payable": false,
      "stateMutability": "view",
      "type": "function"
    },
    {
      "constant": true,
      "inputs": [],
      "name": "currency",
      "outputs": [
        {
          "internalType": "contract BarnaToken",
          "name": "",
          "type": "address"
        }
      ],
      "payable": false,
      "stateMutability": "view",
      "type": "function"
    },
    {
      "constant": true,
      "inputs": [],
      "name": "currency2",
      "outputs": [
        {
          "internalType": "contract FiberToken",
          "name": "",
          "type": "address"
        }
      ],
      "payable": false,
      "stateMutability": "view",
      "type": "function"
    },
    {
      "constant": true,
      "inputs": [
        {
          "internalType": "uint256",
          "name": "",
          "type": "uint256"
        }
      ],
      "name": "payments",
      "outputs": [
        {
          "internalType": "address",
          "name": "customer",
          "type": "address"
        },
        {
          "internalType": "uint256",
          "name": "value",
          "type": "uint256"
        },
        {
          "internalType": "enum Escrow.PaymentStatus",
          "name": "status",
          "type": "uint8"
        },
        {
          "internalType": "bool",
          "name": "refundApproved",
          "type": "bool"
        }
      ],
      "payable": false,
      "stateMutability": "view",
      "type": "function"
    },
    {
      "constant": false,
      "inputs": [
        {
          "internalType": "string",
          "name": "moneda",
          "type": "string"
        },
        {
          "internalType": "address",
          "name": "_collectionAddress",
          "type": "address"
        },
        {
          "internalType": "contract FiberToken",
          "name": "a",
          "type": "address"
        },
        {
          "internalType": "contract BarnaToken",
          "name": "b",
          "type": "address"
        }
      ],
      "name": "Escroww",
      "outputs": [],
      "payable": false,
      "stateMutability": "nonpayable",
      "type": "function"
    },
    {
      "constant": false,
      "inputs": [
        {
          "internalType": "uint256",
          "name": "_orderId",
          "type": "uint256"
        },
        {
          "internalType": "address",
          "name": "_customer",
          "type": "address"
        },
        {
          "internalType": "uint256",
          "name": "_value",
          "type": "uint256"
        }
      ],
      "name": "createPayment",
      "outputs": [],
      "payable": false,
      "stateMutability": "nonpayable",
      "type": "function"
    },
    {
      "constant": false,
      "inputs": [
        {
          "internalType": "uint256",
          "name": "_orderId",
          "type": "uint256"
        },
        {
          "internalType": "string",
          "name": "moneda",
          "type": "string"
        }
      ],
      "name": "release",
      "outputs": [],
      "payable": false,
      "stateMutability": "nonpayable",
      "type": "function"
    },
    {
      "constant": false,
      "inputs": [
        {
          "internalType": "uint256",
          "name": "_orderId",
          "type": "uint256"
        },
        {
          "internalType": "string",
          "name": "moneda",
          "type": "string"
        }
      ],
      "name": "refund",
      "outputs": [],
      "payable": false,
      "stateMutability": "nonpayable",
      "type": "function"
    },
    {
      "constant": false,
      "inputs": [
        {
          "internalType": "uint256",
          "name": "_orderId",
          "type": "uint256"
        }
      ],
      "name": "approveRefund",
      "outputs": [],
      "payable": false,
      "stateMutability": "nonpayable",
      "type": "function"
    },
    {
      "constant": false,
      "inputs": [
        {
          "internalType": "uint256",
          "name": "_orderId",
          "type": "uint256"
        },
        {
          "internalType": "address",
          "name": "_receiver",
          "type": "address"
        },
        {
          "internalType": "string",
          "name": "coin",
          "type": "string"
        }
      ],
      "name": "completePayment",
      "outputs": [],
      "payable": false,
      "stateMutability": "nonpayable",
      "type": "function"
    }
  ],
  "bytecode": "0x608060405234801561001057600080fd5b50610f4b806100206000396000f3fe608060405234801561001057600080fd5b506004361061009e5760003560e01c80639b69a3c5116100665780639b69a3c514610318578063e0626f7e14610362578063e5144c9f146103e5578063e5a6b10f1461043d578063ff07d2d0146104875761009e565b80630762cdc6146100a3578063348a71a61461018857806365670b5d146101b65780636aa003711461023957806387d8178914610283575b600080fd5b610186600480360360608110156100b957600080fd5b8101908080359060200190929190803573ffffffffffffffffffffffffffffffffffffffff1690602001909291908035906020019064010000000081111561010057600080fd5b82018360208201111561011257600080fd5b8035906020019184600183028401116401000000008311171561013457600080fd5b91908080601f016020809104026020016040519081016040528093929190818152602001838380828437600081840152601f19601f8201169050808301925050505050505091929192905050506105a2565b005b6101b46004803603602081101561019e57600080fd5b8101908080359060200190929190505050610999565b005b610237600480360360408110156101cc57600080fd5b8101908080359060200190929190803590602001906401000000008111156101f357600080fd5b82018360208201111561020557600080fd5b8035906020019184600183028401116401000000008311171561022757600080fd5b9091929391929390505050610a2a565b005b610241610a7e565b604051808273ffffffffffffffffffffffffffffffffffffffff1673ffffffffffffffffffffffffffffffffffffffff16815260200191505060405180910390f35b6102af6004803603602081101561029957600080fd5b8101908080359060200190929190505050610aa4565b604051808573ffffffffffffffffffffffffffffffffffffffff1673ffffffffffffffffffffffffffffffffffffffff1681526020018481526020018360028111156102f757fe5b60ff1681526020018215151515815260200194505050505060405180910390f35b610320610b0e565b604051808273ffffffffffffffffffffffffffffffffffffffff1673ffffffffffffffffffffffffffffffffffffffff16815260200191505060405180910390f35b6103e36004803603604081101561037857600080fd5b81019080803590602001909291908035906020019064010000000081111561039f57600080fd5b8201836020820111156103b157600080fd5b803590602001918460018302840111640100000000831117156103d357600080fd5b9091929391929390505050610b34565b005b61043b600480360360608110156103fb57600080fd5b8101908080359060200190929190803573ffffffffffffffffffffffffffffffffffffffff16906020019092919080359060200190929190505050610baa565b005b610445610cf3565b604051808273ffffffffffffffffffffffffffffffffffffffff1673ffffffffffffffffffffffffffffffffffffffff16815260200191505060405180910390f35b6105a06004803603608081101561049d57600080fd5b81019080803590602001906401000000008111156104ba57600080fd5b8201836020820111156104cc57600080fd5b803590602001918460018302840111640100000000831117156104ee57600080fd5b91908080601f016020809104026020016040519081016040528093929190818152602001838380828437600081840152601f19601f820116905080830192505050505050509192919290803573ffffffffffffffffffffffffffffffffffffffff169060200190929190803573ffffffffffffffffffffffffffffffffffffffff169060200190929190803573ffffffffffffffffffffffffffffffffffffffff169060200190929190505050610d19565b005b600080600085815260200190815260200160002090506000600190507f6261726e61000000000000000000000000000000000000000000000000000000836040516020018082805190602001908083835b6020831061061657805182526020820191506020810190506020830392506105f3565b6001836020036101000a03801982511681845116808217855250505050505090500191505060405160208183030381529060405280519060200120141561074557600160009054906101000a900473ffffffffffffffffffffffffffffffffffffffff1673ffffffffffffffffffffffffffffffffffffffff1663a9059cbb8584600101546040518363ffffffff1660e01b8152600401808373ffffffffffffffffffffffffffffffffffffffff1673ffffffffffffffffffffffffffffffffffffffff16815260200182815260200192505050602060405180830381600087803b15801561070457600080fd5b505af1158015610718573d6000803e3d6000fd5b505050506040513d602081101561072e57600080fd5b8101908080519060200190929190505050506108c9565b7f6669626572000000000000000000000000000000000000000000000000000000836040516020018082805190602001908083835b6020831061079d578051825260208201915060208101905060208303925061077a565b6001836020036101000a0380198251168184511680821785525050505050509050019150506040516020818303038152906040528051906020012014156108c857600260009054906101000a900473ffffffffffffffffffffffffffffffffffffffff1673ffffffffffffffffffffffffffffffffffffffff1663a9059cbb8584600101546040518363ffffffff1660e01b8152600401808373ffffffffffffffffffffffffffffffffffffffff1673ffffffffffffffffffffffffffffffffffffffff16815260200182815260200192505050602060405180830381600087803b15801561088b57600080fd5b505af115801561089f573d6000803e3d6000fd5b505050506040513d60208110156108b557600080fd5b8101908080519060200190929190505050505b5b808260020160006101000a81548160ff021916908360028111156108e957fe5b02179055508373ffffffffffffffffffffffffffffffffffffffff168260000160009054906101000a900473ffffffffffffffffffffffffffffffffffffffff1673ffffffffffffffffffffffffffffffffffffffff16867f7bbd3486f62cf6720d7fd5fe901b89e44756a26977f780fc32a23e220b04be518560010154856040518083815260200182600281111561097e57fe5b60ff1681526020019250505060405180910390a45050505050565b600360009054906101000a900473ffffffffffffffffffffffffffffffffffffffff1673ffffffffffffffffffffffffffffffffffffffff163373ffffffffffffffffffffffffffffffffffffffff16146109f357600080fd5b6000806000838152602001908152602001600020905060018160020160016101000a81548160ff0219169083151502179055505050565b610a79833384848080601f016020809104026020016040519081016040528093929190818152602001838380828437600081840152601f19601f820116905080830192505050505050506105a2565b505050565b600360009054906101000a900473ffffffffffffffffffffffffffffffffffffffff1681565b60006020528060005260406000206000915090508060000160009054906101000a900473ffffffffffffffffffffffffffffffffffffffff16908060010154908060020160009054906101000a900460ff16908060020160019054906101000a900460ff16905084565b600260009054906101000a900473ffffffffffffffffffffffffffffffffffffffff1681565b610ba583600360009054906101000a900473ffffffffffffffffffffffffffffffffffffffff1684848080601f016020809104026020016040519081016040528093929190818152602001838380828437600081840152601f19601f820116905080830192505050505050506105a2565b505050565b60405180608001604052808373ffffffffffffffffffffffffffffffffffffffff16815260200182815260200160006002811115610be457fe5b81526020016000151581525060008085815260200190815260200160002060008201518160000160006101000a81548173ffffffffffffffffffffffffffffffffffffffff021916908373ffffffffffffffffffffffffffffffffffffffff1602179055506020820151816001015560408201518160020160006101000a81548160ff02191690836002811115610c7757fe5b021790555060608201518160020160016101000a81548160ff0219169083151502179055509050508173ffffffffffffffffffffffffffffffffffffffff16837f116f78e400432d6399c491c22c98e7a457200ae66fc2cec42ddbe99ac276db02836040518082815260200191505060405180910390a3505050565b600160009054906101000a900473ffffffffffffffffffffffffffffffffffffffff1681565b7f6261726e61000000000000000000000000000000000000000000000000000000846040516020018082805190602001908083835b60208310610d715780518252602082019150602081019050602083039250610d4e565b6001836020036101000a038019825116818451168082178552505050505050905001915050604051602081830303815290604052805190602001201415610df45780600160006101000a81548173ffffffffffffffffffffffffffffffffffffffff021916908373ffffffffffffffffffffffffffffffffffffffff1602179055505b7f6669626572000000000000000000000000000000000000000000000000000000846040516020018082805190602001908083835b60208310610e4c5780518252602082019150602081019050602083039250610e29565b6001836020036101000a038019825116818451168082178552505050505050905001915050604051602081830303815290604052805190602001201415610ecf5781600260006101000a81548173ffffffffffffffffffffffffffffffffffffffff021916908373ffffffffffffffffffffffffffffffffffffffff1602179055505b82600360006101000a81548173ffffffffffffffffffffffffffffffffffffffff021916908373ffffffffffffffffffffffffffffffffffffffff1602179055505050505056fea265627a7a72315820457cf41dc17a1bbffcea1c3e8a0d48d902ffe8dd963028ba4db2d03e07d4e58064736f6c63430005100032",
  "source": "pragma solidity >=0.4.21;\n\nimport \"./BarnaToken.sol\";\nimport \"./FiberToken.sol\";\n\ncontract Escrow {\n\n    enum PaymentStatus { Pending, Completed, Refunded }\n\n    event PaymentCreation(uint indexed orderId, address indexed customer, uint value);\n    event PaymentCompletion(uint indexed orderId, address indexed customer, uint value, PaymentStatus status,address indexed reciver);\n\n    struct Payment {\n        address customer;\n        uint value;\n        PaymentStatus status;\n        bool refundApproved;\n    }\n    mapping(uint => Payment) public payments;\n    BarnaToken public currency;\n    FiberToken public currency2;\n    \n    address public collectionAddress;\n\n    function Escroww(string memory moneda, address _collectionAddress, FiberToken a, BarnaToken b) public {\n        if(keccak256(abi.encodePacked((moneda))) == \"barna\"){currency = b;\n            \n        }\n        if(keccak256(abi.encodePacked((moneda))) == \"fiber\")currency2 = a;\n        collectionAddress = _collectionAddress;\n    }\n\n    function createPayment(uint _orderId, address _customer, uint _value) external  {\n        payments[_orderId] = Payment(_customer, _value, PaymentStatus.Pending, false);\n        emit PaymentCreation(_orderId, _customer, _value);\n    }\n\n    function release(uint _orderId, string  calldata moneda) external {\n        completePayment(_orderId, collectionAddress /*PaymentStatus.Completed*/, moneda);\n    }\n\n    function refund(uint _orderId, string  calldata moneda) external {\n        completePayment(_orderId, msg.sender /*PaymentStatus.Refunded*/, moneda);\n    }\n\n    function approveRefund(uint _orderId) external {\n        require(msg.sender == collectionAddress);\n        Payment storage payment = payments[_orderId];\n        payment.refundApproved = true;\n    }\n\n    function completePayment(uint _orderId, address _receiver /*PaymentStatus _status*/, string memory coin) public {\n        Payment storage payment = payments[_orderId];\n        //require(payment.customer == msg.sender);\n        //require(payment.status == PaymentStatus.Pending);\n        //if (_status == PaymentStatus.Refunded) {\n        //    require(payment.refundApproved);\n        //}\n        PaymentStatus _status = PaymentStatus.Completed;\n        if(keccak256(abi.encodePacked((coin))) == \"barna\")\n        currency.transfer(_receiver, payment.value);\n        else if(keccak256(abi.encodePacked((coin))) == \"fiber\")currency2.transfer(_receiver, payment.value);\n        payment.status = _status;\n        emit PaymentCompletion(_orderId, payment.customer, payment.value, _status, _receiver);\n    }\n}\n",
  "sourcePath": "/home/jquintana/PTI-admin/blockchain/contracts/Escrow.sol",
  "compiler": {
    "name": "solc",
    "version": "0.5.16+commit.9c3226ce.Emscripten.clang"
  },
  "schemaVersion": "3.3.1",
  "updatedAt": "2020-12-08T17:55:02.014Z",
  "networkType": "ethereum",
  "devdoc": {
    "methods": {}
  },
  "userdoc": {
    "methods": {}
  }
}