{
  "contractName": "Escrow",
  "abi": [
    {
      "inputs": [
        {
          "internalType": "contract BarnaToken",
          "name": "_barnaToken",
          "type": "address"
        },
        {
          "internalType": "contract FiberToken",
          "name": "_fiberToken",
          "type": "address"
        },
        {
          "internalType": "contract UpcToken",
          "name": "_upcToken",
          "type": "address"
        },
        {
          "internalType": "contract CatToken",
          "name": "_catToken",
          "type": "address"
        }
      ],
      "payable": false,
      "stateMutability": "nonpayable",
      "type": "constructor"
    },
    {
      "anonymous": false,
      "inputs": [
        {
          "indexed": false,
          "internalType": "address",
          "name": "escrowAddress",
          "type": "address"
        }
      ],
      "name": "EscrowInit",
      "type": "event"
    },
    {
      "constant": true,
      "inputs": [],
      "name": "name",
      "outputs": [
        {
          "internalType": "string",
          "name": "",
          "type": "string"
        }
      ],
      "payable": false,
      "stateMutability": "view",
      "type": "function"
    },
    {
      "constant": true,
      "inputs": [
        {
          "internalType": "uint256",
          "name": "",
          "type": "uint256"
        }
      ],
      "name": "payments",
      "outputs": [
        {
          "internalType": "uint256",
          "name": "bidId",
          "type": "uint256"
        },
        {
          "internalType": "address",
          "name": "ownerAddress",
          "type": "address"
        },
        {
          "internalType": "uint256",
          "name": "sellAmount",
          "type": "uint256"
        },
        {
          "internalType": "string",
          "name": "sellCurrency",
          "type": "string"
        }
      ],
      "payable": false,
      "stateMutability": "view",
      "type": "function"
    },
    {
      "constant": false,
      "inputs": [
        {
          "internalType": "uint256",
          "name": "bidId",
          "type": "uint256"
        },
        {
          "internalType": "uint256",
          "name": "sellAmount",
          "type": "uint256"
        },
        {
          "internalType": "string",
          "name": "sellCurrency",
          "type": "string"
        }
      ],
      "name": "createPayment",
      "outputs": [
        {
          "internalType": "bool",
          "name": "created",
          "type": "bool"
        }
      ],
      "payable": false,
      "stateMutability": "nonpayable",
      "type": "function"
    },
    {
      "constant": false,
      "inputs": [
        {
          "internalType": "uint256",
          "name": "bidId",
          "type": "uint256"
        }
      ],
      "name": "requestPayment",
      "outputs": [
        {
          "internalType": "bool",
          "name": "completed",
          "type": "bool"
        }
      ],
      "payable": false,
      "stateMutability": "nonpayable",
      "type": "function"
    },
    {
      "constant": false,
      "inputs": [
        {
          "internalType": "uint256",
          "name": "bidId",
          "type": "uint256"
        }
      ],
      "name": "getPaymentOwner",
      "outputs": [
        {
          "internalType": "address",
          "name": "ownerAddress",
          "type": "address"
        }
      ],
      "payable": false,
      "stateMutability": "nonpayable",
      "type": "function"
    },
    {
      "constant": false,
      "inputs": [
        {
          "internalType": "uint256",
          "name": "bidId",
          "type": "uint256"
        }
      ],
      "name": "getPaymentSellAmount",
      "outputs": [
        {
          "internalType": "uint256",
          "name": "sellAmount",
          "type": "uint256"
        }
      ],
      "payable": false,
      "stateMutability": "nonpayable",
      "type": "function"
    }
  ],
  "bytecode": "0x60806040526040518060400160405280600681526020017f457363726f770000000000000000000000000000000000000000000000000000815250600090805190602001906200005192919062000626565b503480156200005f57600080fd5b5060405162003ac838038062003ac8833981810160405260808110156200008557600080fd5b81019080805190602001909291908051906020019092919080519060200190929190805190602001909291905050507f8efe4fdb8cb27e356cc25ada05cc714d6bbdb24500e23de99f75873c4bc18c7730604051808273ffffffffffffffffffffffffffffffffffffffff1673ffffffffffffffffffffffffffffffffffffffff16815260200191505060405180910390a183600160006101000a81548173ffffffffffffffffffffffffffffffffffffffff021916908373ffffffffffffffffffffffffffffffffffffffff16021790555082600260006101000a81548173ffffffffffffffffffffffffffffffffffffffff021916908373ffffffffffffffffffffffffffffffffffffffff16021790555081600360006101000a81548173ffffffffffffffffffffffffffffffffffffffff021916908373ffffffffffffffffffffffffffffffffffffffff16021790555080600460006101000a81548173ffffffffffffffffffffffffffffffffffffffff021916908373ffffffffffffffffffffffffffffffffffffffff160217905550600160009054906101000a900473ffffffffffffffffffffffffffffffffffffffff1673ffffffffffffffffffffffffffffffffffffffff166370a08231306040518263ffffffff1660e01b8152600401808273ffffffffffffffffffffffffffffffffffffffff1673ffffffffffffffffffffffffffffffffffffffff16815260200191505060206040518083038186803b158015620002bb57600080fd5b505afa158015620002d0573d6000803e3d6000fd5b505050506040513d6020811015620002e757600080fd5b8101908080519060200190929190505050600581905550600260009054906101000a900473ffffffffffffffffffffffffffffffffffffffff1673ffffffffffffffffffffffffffffffffffffffff166370a08231306040518263ffffffff1660e01b8152600401808273ffffffffffffffffffffffffffffffffffffffff1673ffffffffffffffffffffffffffffffffffffffff16815260200191505060206040518083038186803b1580156200039e57600080fd5b505afa158015620003b3573d6000803e3d6000fd5b505050506040513d6020811015620003ca57600080fd5b8101908080519060200190929190505050600681905550600360009054906101000a900473ffffffffffffffffffffffffffffffffffffffff1673ffffffffffffffffffffffffffffffffffffffff166370a08231306040518263ffffffff1660e01b8152600401808273ffffffffffffffffffffffffffffffffffffffff1673ffffffffffffffffffffffffffffffffffffffff16815260200191505060206040518083038186803b1580156200048157600080fd5b505afa15801562000496573d6000803e3d6000fd5b505050506040513d6020811015620004ad57600080fd5b8101908080519060200190929190505050600781905550600460009054906101000a900473ffffffffffffffffffffffffffffffffffffffff1673ffffffffffffffffffffffffffffffffffffffff166370a08231306040518263ffffffff1660e01b8152600401808273ffffffffffffffffffffffffffffffffffffffff1673ffffffffffffffffffffffffffffffffffffffff16815260200191505060206040518083038186803b1580156200056457600080fd5b505afa15801562000579573d6000803e3d6000fd5b505050506040513d60208110156200059057600080fd5b810190808051906020019092919050505060088190555060016200061c576040517f08c379a000000000000000000000000000000000000000000000000000000000815260040180806020018281038252600e8152602001807f457363726f77204372656174656400000000000000000000000000000000000081525060200191505060405180910390fd5b50505050620006d5565b828054600181600116156101000203166002900490600052602060002090601f016020900481019282601f106200066957805160ff19168380011785556200069a565b828001600101855582156200069a579182015b82811115620006995782518255916020019190600101906200067c565b5b509050620006a99190620006ad565b5090565b620006d291905b80821115620006ce576000816000905550600101620006b4565b5090565b90565b6133e380620006e56000396000f3fe608060405234801561001057600080fd5b50600436106100625760003560e01c806306fdde03146100675780634766a54d146100ea57806358271504146101585780635de988ab1461019a57806374672ac5146101e057806387d81789146102c7575b600080fd5b61006f6103af565b6040518080602001828103825283818151815260200191508051906020019080838360005b838110156100af578082015181840152602081019050610094565b50505050905090810190601f1680156100dc5780820380516001836020036101000a031916815260200191505b509250505060405180910390f35b6101166004803603602081101561010057600080fd5b810190808035906020019092919050505061044d565b604051808273ffffffffffffffffffffffffffffffffffffffff1673ffffffffffffffffffffffffffffffffffffffff16815260200191505060405180910390f35b6101846004803603602081101561016e57600080fd5b81019080803590602001909291905050506104e7565b6040518082815260200191505060405180910390f35b6101c6600480360360208110156101b057600080fd5b8101908080359060200190929190505050610561565b604051808215151515815260200191505060405180910390f35b6102ad600480360360608110156101f657600080fd5b8101908080359060200190929190803590602001909291908035906020019064010000000081111561022757600080fd5b82018360208201111561023957600080fd5b8035906020019184600183028401116401000000008311171561025b57600080fd5b91908080601f016020809104026020016040519081016040528093929190818152602001838380828437600081840152601f19601f8201169050808301925050505050505091929192905050506106a8565b604051808215151515815260200191505060405180910390f35b6102f3600480360360208110156102dd57600080fd5b81019080803590602001909291905050506108ff565b604051808581526020018473ffffffffffffffffffffffffffffffffffffffff1673ffffffffffffffffffffffffffffffffffffffff16815260200183815260200180602001828103825283818151815260200191508051906020019080838360005b83811015610371578082015181840152602081019050610356565b50505050905090810190601f16801561039e5780820380516001836020036101000a031916815260200191505b509550505050505060405180910390f35b60008054600181600116156101000203166002900480601f0160208091040260200160405190810160405280929190818152602001828054600181600116156101000203166002900480156104455780601f1061041a57610100808354040283529160200191610445565b820191906000526020600020905b81548152906001019060200180831161042857829003601f168201915b505050505081565b600080600090505b6009805490508110156104dc57826009828154811061047057fe5b90600052602060002090600402016000015414156104cf576009818154811061049557fe5b906000526020600020906004020160010160009054906101000a900473ffffffffffffffffffffffffffffffffffffffff169150506104e2565b8080600101915050610455565b50600090505b919050565b600080600090505b60098054905081101561055657826009828154811061050a57fe5b9060005260206000209060040201600001541415610549576009818154811061052f57fe5b90600052602060002090600402016002015491505061055c565b80806001019150506104ef565b50600090505b919050565b600080600090505b60098054905081101561069d57826009828154811061058457fe5b90600052602060002090600402016000015414156106905761067b33600983815481106105ad57fe5b906000526020600020906004020160020154600984815481106105cc57fe5b90600052602060002090600402016003018054600181600116156101000203166002900480601f0160208091040260200160405190810160405280929190818152602001828054600181600116156101000203166002900480156106715780601f1061064657610100808354040283529160200191610671565b820191906000526020600020905b81548152906001019060200180831161065457829003601f168201915b50505050506109f4565b506106858161170e565b5060019150506106a3565b8080600101915050610569565b50600090505b919050565b6000600115156106b88484611919565b151514610710576040517f08c379a00000000000000000000000000000000000000000000000000000000081526004018080602001828103825260268152602001806133896026913960400191505060405180910390fd5b6000831015610787576040517f08c379a00000000000000000000000000000000000000000000000000000000081526004018080602001828103825260168152602001807f73656c6c416d6f756e742063616e6e6f7420626520300000000000000000000081525060200191505060405180910390fd5b60011515610794836127e6565b151514610809576040517f08c379a00000000000000000000000000000000000000000000000000000000081526004018080602001828103825260148152602001807f496e76616c69642073656c6c43757272656e637900000000000000000000000081525060200191505060405180910390fd5b61081161313e565b60405180608001604052808681526020013373ffffffffffffffffffffffffffffffffffffffff168152602001858152602001848152509050600981908060018154018082558091505090600182039060005260206000209060040201600090919290919091506000820151816000015560208201518160010160006101000a81548173ffffffffffffffffffffffffffffffffffffffff021916908373ffffffffffffffffffffffffffffffffffffffff1602179055506040820151816002015560608201518160030190805190602001906108ef92919061317c565b5050505060019150509392505050565b6009818154811061090c57fe5b90600052602060002090600402016000915090508060000154908060010160009054906101000a900473ffffffffffffffffffffffffffffffffffffffff1690806002015490806003018054600181600116156101000203166002900480601f0160208091040260200160405190810160405280929190818152602001828054600181600116156101000203166002900480156109ea5780601f106109bf576101008083540402835291602001916109ea565b820191906000526020600020905b8154815290600101906020018083116109cd57829003601f168201915b5050505050905084565b6000600160009054906101000a900473ffffffffffffffffffffffffffffffffffffffff1673ffffffffffffffffffffffffffffffffffffffff166395d89b416040518163ffffffff1660e01b815260040160006040518083038186803b158015610a5e57600080fd5b505afa158015610a72573d6000803e3d6000fd5b505050506040513d6000823e3d601f19601f820116820180604052506020811015610a9c57600080fd5b8101908080516040519392919084640100000000821115610abc57600080fd5b83820191506020820185811115610ad257600080fd5b8251866001820283011164010000000082111715610aef57600080fd5b8083526020830192505050908051906020019080838360005b83811015610b23578082015181840152602081019050610b08565b50505050905090810190601f168015610b505780820380516001836020036101000a031916815260200191505b506040525050506040516020018082805190602001908083835b60208310610b8d5780518252602082019150602081019050602083039250610b6a565b6001836020036101000a03801982511681845116808217855250505050505090500191505060405160208183030381529060405280519060200120826040516020018082805190602001908083835b60208310610bff5780518252602082019150602081019050602083039250610bdc565b6001836020036101000a038019825116818451168082178552505050505050905001915050604051602081830303815290604052805190602001201415610d3957600160009054906101000a900473ffffffffffffffffffffffffffffffffffffffff1673ffffffffffffffffffffffffffffffffffffffff1663a9059cbb85856040518363ffffffff1660e01b8152600401808373ffffffffffffffffffffffffffffffffffffffff1673ffffffffffffffffffffffffffffffffffffffff16815260200182815260200192505050602060405180830381600087803b158015610ce957600080fd5b505af1158015610cfd573d6000803e3d6000fd5b505050506040513d6020811015610d1357600080fd5b810190808051906020019092919050505050826005540360058190555060019050611707565b600260009054906101000a900473ffffffffffffffffffffffffffffffffffffffff1673ffffffffffffffffffffffffffffffffffffffff166395d89b416040518163ffffffff1660e01b815260040160006040518083038186803b158015610da157600080fd5b505afa158015610db5573d6000803e3d6000fd5b505050506040513d6000823e3d601f19601f820116820180604052506020811015610ddf57600080fd5b8101908080516040519392919084640100000000821115610dff57600080fd5b83820191506020820185811115610e1557600080fd5b8251866001820283011164010000000082111715610e3257600080fd5b8083526020830192505050908051906020019080838360005b83811015610e66578082015181840152602081019050610e4b565b50505050905090810190601f168015610e935780820380516001836020036101000a031916815260200191505b506040525050506040516020018082805190602001908083835b60208310610ed05780518252602082019150602081019050602083039250610ead565b6001836020036101000a03801982511681845116808217855250505050505090500191505060405160208183030381529060405280519060200120826040516020018082805190602001908083835b60208310610f425780518252602082019150602081019050602083039250610f1f565b6001836020036101000a03801982511681845116808217855250505050505090500191505060405160208183030381529060405280519060200120141561107c57600260009054906101000a900473ffffffffffffffffffffffffffffffffffffffff1673ffffffffffffffffffffffffffffffffffffffff1663a9059cbb85856040518363ffffffff1660e01b8152600401808373ffffffffffffffffffffffffffffffffffffffff1673ffffffffffffffffffffffffffffffffffffffff16815260200182815260200192505050602060405180830381600087803b15801561102c57600080fd5b505af1158015611040573d6000803e3d6000fd5b505050506040513d602081101561105657600080fd5b810190808051906020019092919050505050826006540360068190555060019050611707565b600360009054906101000a900473ffffffffffffffffffffffffffffffffffffffff1673ffffffffffffffffffffffffffffffffffffffff166395d89b416040518163ffffffff1660e01b815260040160006040518083038186803b1580156110e457600080fd5b505afa1580156110f8573d6000803e3d6000fd5b505050506040513d6000823e3d601f19601f82011682018060405250602081101561112257600080fd5b810190808051604051939291908464010000000082111561114257600080fd5b8382019150602082018581111561115857600080fd5b825186600182028301116401000000008211171561117557600080fd5b8083526020830192505050908051906020019080838360005b838110156111a957808201518184015260208101905061118e565b50505050905090810190601f1680156111d65780820380516001836020036101000a031916815260200191505b506040525050506040516020018082805190602001908083835b6020831061121357805182526020820191506020810190506020830392506111f0565b6001836020036101000a03801982511681845116808217855250505050505090500191505060405160208183030381529060405280519060200120826040516020018082805190602001908083835b602083106112855780518252602082019150602081019050602083039250611262565b6001836020036101000a0380198251168184511680821785525050505050509050019150506040516020818303038152906040528051906020012014156113bf57600360009054906101000a900473ffffffffffffffffffffffffffffffffffffffff1673ffffffffffffffffffffffffffffffffffffffff1663a9059cbb85856040518363ffffffff1660e01b8152600401808373ffffffffffffffffffffffffffffffffffffffff1673ffffffffffffffffffffffffffffffffffffffff16815260200182815260200192505050602060405180830381600087803b15801561136f57600080fd5b505af1158015611383573d6000803e3d6000fd5b505050506040513d602081101561139957600080fd5b810190808051906020019092919050505050826007540360078190555060019050611707565b600460009054906101000a900473ffffffffffffffffffffffffffffffffffffffff1673ffffffffffffffffffffffffffffffffffffffff166395d89b416040518163ffffffff1660e01b815260040160006040518083038186803b15801561142757600080fd5b505afa15801561143b573d6000803e3d6000fd5b505050506040513d6000823e3d601f19601f82011682018060405250602081101561146557600080fd5b810190808051604051939291908464010000000082111561148557600080fd5b8382019150602082018581111561149b57600080fd5b82518660018202830111640100000000821117156114b857600080fd5b8083526020830192505050908051906020019080838360005b838110156114ec5780820151818401526020810190506114d1565b50505050905090810190601f1680156115195780820380516001836020036101000a031916815260200191505b506040525050506040516020018082805190602001908083835b602083106115565780518252602082019150602081019050602083039250611533565b6001836020036101000a03801982511681845116808217855250505050505090500191505060405160208183030381529060405280519060200120826040516020018082805190602001908083835b602083106115c857805182526020820191506020810190506020830392506115a5565b6001836020036101000a03801982511681845116808217855250505050505090500191505060405160208183030381529060405280519060200120141561170257600460009054906101000a900473ffffffffffffffffffffffffffffffffffffffff1673ffffffffffffffffffffffffffffffffffffffff1663a9059cbb85856040518363ffffffff1660e01b8152600401808373ffffffffffffffffffffffffffffffffffffffff1673ffffffffffffffffffffffffffffffffffffffff16815260200182815260200192505050602060405180830381600087803b1580156116b257600080fd5b505af11580156116c6573d6000803e3d6000fd5b505050506040513d60208110156116dc57600080fd5b810190808051906020019092919050505050826008540360088190555060019050611707565b600090505b9392505050565b6000600980549050821061178a576040517f08c379a00000000000000000000000000000000000000000000000000000000081526004018080602001828103825260198152602001807f417272617920696e646578206f7574206f6620626f756e64730000000000000081525060200191505060405180910390fd5b60008290505b60016009805490500381101561188c57600960018201815481106117b057fe5b9060005260206000209060040201600982815481106117cb57fe5b9060005260206000209060040201600082015481600001556001820160009054906101000a900473ffffffffffffffffffffffffffffffffffffffff168160010160006101000a81548173ffffffffffffffffffffffffffffffffffffffff021916908373ffffffffffffffffffffffffffffffffffffffff160217905550600282015481600201556003820181600301908054600181600116156101000203166002900461187b9291906131fc565b509050508080600101915050611790565b506009600160098054905003815481106118a257fe5b90600052602060002090600402016000808201600090556001820160006101000a81549073ffffffffffffffffffffffffffffffffffffffff021916905560028201600090556003820160006118f89190613283565b5050600980548091906001900361190f91906132cb565b5060019050919050565b6000600160009054906101000a900473ffffffffffffffffffffffffffffffffffffffff1673ffffffffffffffffffffffffffffffffffffffff166395d89b416040518163ffffffff1660e01b815260040160006040518083038186803b15801561198357600080fd5b505afa158015611997573d6000803e3d6000fd5b505050506040513d6000823e3d601f19601f8201168201806040525060208110156119c157600080fd5b81019080805160405193929190846401000000008211156119e157600080fd5b838201915060208201858111156119f757600080fd5b8251866001820283011164010000000082111715611a1457600080fd5b8083526020830192505050908051906020019080838360005b83811015611a48578082015181840152602081019050611a2d565b50505050905090810190601f168015611a755780820380516001836020036101000a031916815260200191505b506040525050506040516020018082805190602001908083835b60208310611ab25780518252602082019150602081019050602083039250611a8f565b6001836020036101000a03801982511681845116808217855250505050505090500191505060405160208183030381529060405280519060200120826040516020018082805190602001908083835b60208310611b245780518252602082019150602081019050602083039250611b01565b6001836020036101000a038019825116818451168082178552505050505050905001915050604051602081830303815290604052805190602001201415611ccb57600160009054906101000a900473ffffffffffffffffffffffffffffffffffffffff1673ffffffffffffffffffffffffffffffffffffffff166370a08231306040518263ffffffff1660e01b8152600401808273ffffffffffffffffffffffffffffffffffffffff1673ffffffffffffffffffffffffffffffffffffffff16815260200191505060206040518083038186803b158015611c0457600080fd5b505afa158015611c18573d6000803e3d6000fd5b505050506040513d6020811015611c2e57600080fd5b8101908080519060200190929190505050836005540114611cb7576040517f08c379a00000000000000000000000000000000000000000000000000000000081526004018080602001828103825260198152602001807f53454c4c205061796d656e74204e6f742052656365697665640000000000000081525060200191505060405180910390fd5b8260055401600581905550600190506127e0565b600260009054906101000a900473ffffffffffffffffffffffffffffffffffffffff1673ffffffffffffffffffffffffffffffffffffffff166395d89b416040518163ffffffff1660e01b815260040160006040518083038186803b158015611d3357600080fd5b505afa158015611d47573d6000803e3d6000fd5b505050506040513d6000823e3d601f19601f820116820180604052506020811015611d7157600080fd5b8101908080516040519392919084640100000000821115611d9157600080fd5b83820191506020820185811115611da757600080fd5b8251866001820283011164010000000082111715611dc457600080fd5b8083526020830192505050908051906020019080838360005b83811015611df8578082015181840152602081019050611ddd565b50505050905090810190601f168015611e255780820380516001836020036101000a031916815260200191505b506040525050506040516020018082805190602001908083835b60208310611e625780518252602082019150602081019050602083039250611e3f565b6001836020036101000a03801982511681845116808217855250505050505090500191505060405160208183030381529060405280519060200120826040516020018082805190602001908083835b60208310611ed45780518252602082019150602081019050602083039250611eb1565b6001836020036101000a03801982511681845116808217855250505050505090500191505060405160208183030381529060405280519060200120141561207b57600260009054906101000a900473ffffffffffffffffffffffffffffffffffffffff1673ffffffffffffffffffffffffffffffffffffffff166370a08231306040518263ffffffff1660e01b8152600401808273ffffffffffffffffffffffffffffffffffffffff1673ffffffffffffffffffffffffffffffffffffffff16815260200191505060206040518083038186803b158015611fb457600080fd5b505afa158015611fc8573d6000803e3d6000fd5b505050506040513d6020811015611fde57600080fd5b8101908080519060200190929190505050836006540114612067576040517f08c379a00000000000000000000000000000000000000000000000000000000081526004018080602001828103825260198152602001807f53454c4c205061796d656e74204e6f742052656365697665640000000000000081525060200191505060405180910390fd5b8260065401600681905550600190506127e0565b600360009054906101000a900473ffffffffffffffffffffffffffffffffffffffff1673ffffffffffffffffffffffffffffffffffffffff166395d89b416040518163ffffffff1660e01b815260040160006040518083038186803b1580156120e357600080fd5b505afa1580156120f7573d6000803e3d6000fd5b505050506040513d6000823e3d601f19601f82011682018060405250602081101561212157600080fd5b810190808051604051939291908464010000000082111561214157600080fd5b8382019150602082018581111561215757600080fd5b825186600182028301116401000000008211171561217457600080fd5b8083526020830192505050908051906020019080838360005b838110156121a857808201518184015260208101905061218d565b50505050905090810190601f1680156121d55780820380516001836020036101000a031916815260200191505b506040525050506040516020018082805190602001908083835b6020831061221257805182526020820191506020810190506020830392506121ef565b6001836020036101000a03801982511681845116808217855250505050505090500191505060405160208183030381529060405280519060200120826040516020018082805190602001908083835b602083106122845780518252602082019150602081019050602083039250612261565b6001836020036101000a03801982511681845116808217855250505050505090500191505060405160208183030381529060405280519060200120141561242b57600360009054906101000a900473ffffffffffffffffffffffffffffffffffffffff1673ffffffffffffffffffffffffffffffffffffffff166370a08231306040518263ffffffff1660e01b8152600401808273ffffffffffffffffffffffffffffffffffffffff1673ffffffffffffffffffffffffffffffffffffffff16815260200191505060206040518083038186803b15801561236457600080fd5b505afa158015612378573d6000803e3d6000fd5b505050506040513d602081101561238e57600080fd5b8101908080519060200190929190505050836007540114612417576040517f08c379a00000000000000000000000000000000000000000000000000000000081526004018080602001828103825260198152602001807f53454c4c205061796d656e74204e6f742052656365697665640000000000000081525060200191505060405180910390fd5b8260075401600781905550600190506127e0565b600460009054906101000a900473ffffffffffffffffffffffffffffffffffffffff1673ffffffffffffffffffffffffffffffffffffffff166395d89b416040518163ffffffff1660e01b815260040160006040518083038186803b15801561249357600080fd5b505afa1580156124a7573d6000803e3d6000fd5b505050506040513d6000823e3d601f19601f8201168201806040525060208110156124d157600080fd5b81019080805160405193929190846401000000008211156124f157600080fd5b8382019150602082018581111561250757600080fd5b825186600182028301116401000000008211171561252457600080fd5b8083526020830192505050908051906020019080838360005b8381101561255857808201518184015260208101905061253d565b50505050905090810190601f1680156125855780820380516001836020036101000a031916815260200191505b506040525050506040516020018082805190602001908083835b602083106125c2578051825260208201915060208101905060208303925061259f565b6001836020036101000a03801982511681845116808217855250505050505090500191505060405160208183030381529060405280519060200120826040516020018082805190602001908083835b602083106126345780518252602082019150602081019050602083039250612611565b6001836020036101000a0380198251168184511680821785525050505050509050019150506040516020818303038152906040528051906020012014156127db57600460009054906101000a900473ffffffffffffffffffffffffffffffffffffffff1673ffffffffffffffffffffffffffffffffffffffff166370a08231306040518263ffffffff1660e01b8152600401808273ffffffffffffffffffffffffffffffffffffffff1673ffffffffffffffffffffffffffffffffffffffff16815260200191505060206040518083038186803b15801561271457600080fd5b505afa158015612728573d6000803e3d6000fd5b505050506040513d602081101561273e57600080fd5b81019080805190602001909291905050508360085401146127c7576040517f08c379a00000000000000000000000000000000000000000000000000000000081526004018080602001828103825260198152602001807f53454c4c205061796d656e74204e6f742052656365697665640000000000000081525060200191505060405180910390fd5b8260085401600881905550600190506127e0565b600090505b92915050565b6000600160009054906101000a900473ffffffffffffffffffffffffffffffffffffffff1673ffffffffffffffffffffffffffffffffffffffff166395d89b416040518163ffffffff1660e01b815260040160006040518083038186803b15801561285057600080fd5b505afa158015612864573d6000803e3d6000fd5b505050506040513d6000823e3d601f19601f82011682018060405250602081101561288e57600080fd5b81019080805160405193929190846401000000008211156128ae57600080fd5b838201915060208201858111156128c457600080fd5b82518660018202830111640100000000821117156128e157600080fd5b8083526020830192505050908051906020019080838360005b838110156129155780820151818401526020810190506128fa565b50505050905090810190601f1680156129425780820380516001836020036101000a031916815260200191505b506040525050506040516020018082805190602001908083835b6020831061297f578051825260208201915060208101905060208303925061295c565b6001836020036101000a03801982511681845116808217855250505050505090500191505060405160208183030381529060405280519060200120826040516020018082805190602001908083835b602083106129f157805182526020820191506020810190506020830392506129ce565b6001836020036101000a038019825116818451168082178552505050505050905001915050604051602081830303815290604052805190602001201415612a3b5760019050613139565b600260009054906101000a900473ffffffffffffffffffffffffffffffffffffffff1673ffffffffffffffffffffffffffffffffffffffff166395d89b416040518163ffffffff1660e01b815260040160006040518083038186803b158015612aa357600080fd5b505afa158015612ab7573d6000803e3d6000fd5b505050506040513d6000823e3d601f19601f820116820180604052506020811015612ae157600080fd5b8101908080516040519392919084640100000000821115612b0157600080fd5b83820191506020820185811115612b1757600080fd5b8251866001820283011164010000000082111715612b3457600080fd5b8083526020830192505050908051906020019080838360005b83811015612b68578082015181840152602081019050612b4d565b50505050905090810190601f168015612b955780820380516001836020036101000a031916815260200191505b506040525050506040516020018082805190602001908083835b60208310612bd25780518252602082019150602081019050602083039250612baf565b6001836020036101000a03801982511681845116808217855250505050505090500191505060405160208183030381529060405280519060200120826040516020018082805190602001908083835b60208310612c445780518252602082019150602081019050602083039250612c21565b6001836020036101000a038019825116818451168082178552505050505050905001915050604051602081830303815290604052805190602001201415612c8e5760019050613139565b600360009054906101000a900473ffffffffffffffffffffffffffffffffffffffff1673ffffffffffffffffffffffffffffffffffffffff166395d89b416040518163ffffffff1660e01b815260040160006040518083038186803b158015612cf657600080fd5b505afa158015612d0a573d6000803e3d6000fd5b505050506040513d6000823e3d601f19601f820116820180604052506020811015612d3457600080fd5b8101908080516040519392919084640100000000821115612d5457600080fd5b83820191506020820185811115612d6a57600080fd5b8251866001820283011164010000000082111715612d8757600080fd5b8083526020830192505050908051906020019080838360005b83811015612dbb578082015181840152602081019050612da0565b50505050905090810190601f168015612de85780820380516001836020036101000a031916815260200191505b506040525050506040516020018082805190602001908083835b60208310612e255780518252602082019150602081019050602083039250612e02565b6001836020036101000a03801982511681845116808217855250505050505090500191505060405160208183030381529060405280519060200120826040516020018082805190602001908083835b60208310612e975780518252602082019150602081019050602083039250612e74565b6001836020036101000a038019825116818451168082178552505050505050905001915050604051602081830303815290604052805190602001201415612ee15760019050613139565b600460009054906101000a900473ffffffffffffffffffffffffffffffffffffffff1673ffffffffffffffffffffffffffffffffffffffff166395d89b416040518163ffffffff1660e01b815260040160006040518083038186803b158015612f4957600080fd5b505afa158015612f5d573d6000803e3d6000fd5b505050506040513d6000823e3d601f19601f820116820180604052506020811015612f8757600080fd5b8101908080516040519392919084640100000000821115612fa757600080fd5b83820191506020820185811115612fbd57600080fd5b8251866001820283011164010000000082111715612fda57600080fd5b8083526020830192505050908051906020019080838360005b8381101561300e578082015181840152602081019050612ff3565b50505050905090810190601f16801561303b5780820380516001836020036101000a031916815260200191505b506040525050506040516020018082805190602001908083835b602083106130785780518252602082019150602081019050602083039250613055565b6001836020036101000a03801982511681845116808217855250505050505090500191505060405160208183030381529060405280519060200120826040516020018082805190602001908083835b602083106130ea57805182526020820191506020810190506020830392506130c7565b6001836020036101000a0380198251168184511680821785525050505050509050019150506040516020818303038152906040528051906020012014156131345760019050613139565b600090505b919050565b604051806080016040528060008152602001600073ffffffffffffffffffffffffffffffffffffffff16815260200160008152602001606081525090565b828054600181600116156101000203166002900490600052602060002090601f016020900481019282601f106131bd57805160ff19168380011785556131eb565b828001600101855582156131eb579182015b828111156131ea5782518255916020019190600101906131cf565b5b5090506131f891906132fd565b5090565b828054600181600116156101000203166002900490600052602060002090601f016020900481019282601f106132355780548555613272565b8280016001018555821561327257600052602060002091601f016020900482015b82811115613271578254825591600101919060010190613256565b5b50905061327f91906132fd565b5090565b50805460018160011615610100020316600290046000825580601f106132a957506132c8565b601f0160209004906000526020600020908101906132c791906132fd565b5b50565b8154818355818111156132f8576004028160040283600052602060002091820191016132f79190613322565b5b505050565b61331f91905b8082111561331b576000816000905550600101613303565b5090565b90565b61338591905b80821115613381576000808201600090556001820160006101000a81549073ffffffffffffffffffffffffffffffffffffffff021916905560028201600090556003820160006133789190613283565b50600401613328565b5090565b9056fe457363726f773a2048617665206e6f74207265636569766564202773656c6c416d6f756e7427a265627a7a723158208f5c75ec5df069a056eb09af5c4b87717c33c497a60e603d3e20a9065842890764736f6c63430005100032",
  "source": "pragma solidity >=0.4.22 <0.7.0;\r\n\r\nimport \"./BarnaToken.sol\";\r\nimport \"./FiberToken.sol\";\r\nimport \"./UpcToken.sol\";\r\nimport \"./CatToken.sol\";\r\n\r\ncontract Escrow {\r\n\r\n    string public name = \"Escrow\";\r\n    \r\n    BarnaToken private barnaToken;\r\n    FiberToken private fiberToken;\r\n    UpcToken private upcToken;\r\n    CatToken private catToken;\r\n    \r\n    uint256 private balanceBNC;\r\n    uint256 private balanceFBC;\r\n    uint256 private balanceUPC;\r\n    uint256 private balanceCTC;\r\n    \r\n\tevent EscrowInit(address escrowAddress);\r\n \r\n    struct openBidData {\r\n        uint256 bidId;\r\n        address ownerAddress;\r\n        uint256 sellAmount;\r\n\t\tstring sellCurrency;\r\n    }\r\n    \r\n    openBidData[] public payments;\r\n    \t\r\n\tconstructor(BarnaToken _barnaToken, FiberToken _fiberToken, UpcToken _upcToken, CatToken _catToken) public {\r\n        emit EscrowInit(address(this));\r\n\t\t\r\n\t\t// payments = new openBidData[](maxSize);\r\n\t\t// availableCryptocurrencies = [\"BNC\", \"FBC\", \"UPC\", \"CTC\"];\r\n\t\t\r\n\t\tbarnaToken = _barnaToken;\r\n\t\tfiberToken = _fiberToken;\r\n\t\tupcToken = _upcToken;\r\n\t\tcatToken = _catToken;\r\n\t\t\r\n\t\tbalanceBNC = barnaToken.balanceOf(address(this));\r\n\t\tbalanceFBC = fiberToken.balanceOf(address(this));\r\n\t\tbalanceUPC = upcToken.balanceOf(address(this));\r\n\t\tbalanceCTC = catToken.balanceOf(address(this));\r\n\t\t\r\n\t\trequire(true, \"Escrow Created\");\r\n    }\r\n\r\n    function createPayment(uint256 bidId, uint256 sellAmount, string memory sellCurrency) public returns (bool created) { \r\n        /* Verify that Escrow balanceOf of working token has increased by sellAmount */\r\n        require(verifyReceivedSellAmount(sellAmount, sellCurrency) == true, \"Escrow: Have not received 'sellAmount'\");\r\n        require(sellAmount >= 0, \"sellAmount cannot be 0\");\r\n        require(isValidCurrency(sellCurrency) == true, \"Invalid sellCurrency\");\r\n\t\t/* Add new openBid data to the main array */\r\n        openBidData memory bid = openBidData(bidId, msg.sender, sellAmount, sellCurrency);\r\n        payments.push(bid);\r\n\t\treturn true;\r\n    }\r\n    \r\n    // TO DO: Add verification method to check if the SELL transfer from acceptingUser has been done\r\n    function requestPayment(uint256 bidId) public returns (bool completed) {\r\n        for (uint256 i = 0; i < payments.length; i++) { \r\n            if (payments[i].bidId == bidId) {\r\n\t\t\t\t/* Send staked 'sellAmount' consisting of the SELL transfer from the owner user to the user accepting the open bid 'bidId' */\r\n\t\t\t\tsendPaymentToRequestingUser(msg.sender, payments[i].sellAmount, payments[i].sellCurrency);\r\n\t\t\t\t/* Delete this openBid data from the main array once completely traded */\r\n\t\t\t\tdeleteOpenBidFromPayments(i);\r\n                return true;\r\n            }\r\n        }\r\n        return false;\r\n    }\r\n    \r\n    function getPaymentOwner(uint256 bidId) public returns (address ownerAddress) {\r\n        for (uint256 i = 0; i < payments.length; i++) { \r\n            if (payments[i].bidId == bidId) { return payments[i].ownerAddress; }\r\n        }\r\n        return address(0);\r\n    }\r\n    \r\n   function getPaymentSellAmount(uint256 bidId) public returns (uint256 sellAmount) {\r\n        for (uint256 i = 0; i < payments.length; i++) { \r\n            if (payments[i].bidId == bidId) { return payments[i].sellAmount; }\r\n        }\r\n        return 0; // CAUTION!!\r\n    }\r\n   \r\n    function verifyReceivedSellAmount(uint256 sellAmount, string memory sellCurrency) internal returns (bool) {\r\n        if (keccak256(abi.encodePacked(sellCurrency)) == keccak256(abi.encodePacked(barnaToken.symbol()))) { \r\n            require(balanceBNC + sellAmount == barnaToken.balanceOf(address(this)), \"SELL Payment Not Received\");\r\n            balanceBNC = balanceBNC + sellAmount;\r\n            return true;\r\n        }\r\n        else if (keccak256(abi.encodePacked(sellCurrency)) == keccak256(abi.encodePacked(fiberToken.symbol()))) { \r\n            require(balanceFBC + sellAmount == fiberToken.balanceOf(address(this)), \"SELL Payment Not Received\");\r\n            balanceFBC = balanceFBC + sellAmount;\r\n            return true;\r\n        }\r\n        else if (keccak256(abi.encodePacked(sellCurrency)) == keccak256(abi.encodePacked(upcToken.symbol()))) { \r\n            require(balanceUPC + sellAmount == upcToken.balanceOf(address(this)), \"SELL Payment Not Received\");\r\n            balanceUPC = balanceUPC + sellAmount;\r\n            return true;\r\n        }\r\n        else if (keccak256(abi.encodePacked(sellCurrency)) == keccak256(abi.encodePacked(catToken.symbol()))) { \r\n            require(balanceCTC + sellAmount == catToken.balanceOf(address(this)), \"SELL Payment Not Received\");\r\n            balanceCTC = balanceCTC + sellAmount;\r\n            return true;\r\n        }\r\n        return false;\r\n    }\r\n\t\r\n\tfunction sendPaymentToRequestingUser(address receiver, uint256 sellAmount, string memory sellCurrency) internal returns (bool) {\r\n\t\tif (keccak256(abi.encodePacked(sellCurrency)) == keccak256(abi.encodePacked(barnaToken.symbol()))) { \r\n\t\t\tbarnaToken.transfer(receiver, sellAmount);\r\n\t\t\tbalanceBNC = balanceBNC - sellAmount;\r\n            return true;\r\n        }\r\n        else if (keccak256(abi.encodePacked(sellCurrency)) == keccak256(abi.encodePacked(fiberToken.symbol()))) { \r\n            fiberToken.transfer(receiver, sellAmount);\r\n            balanceFBC = balanceFBC - sellAmount;\r\n            return true;\r\n        }\r\n        else if (keccak256(abi.encodePacked(sellCurrency)) == keccak256(abi.encodePacked(upcToken.symbol()))) { \r\n            upcToken.transfer(receiver, sellAmount);\r\n            balanceUPC = balanceUPC - sellAmount;\r\n            return true;\r\n        }\r\n        else if (keccak256(abi.encodePacked(sellCurrency)) == keccak256(abi.encodePacked(catToken.symbol()))) { \r\n\t\t\tcatToken.transfer(receiver, sellAmount);\r\n            balanceCTC = balanceCTC - sellAmount;\r\n            return true;\r\n        }\r\n\t\treturn false;\r\n\t}\r\n\t\r\n\tfunction isValidCurrency(string memory currency) internal returns (bool) {\r\n        if (keccak256(abi.encodePacked(currency)) == keccak256(abi.encodePacked(barnaToken.symbol()))) { return true; }\r\n        else if (keccak256(abi.encodePacked(currency)) == keccak256(abi.encodePacked(fiberToken.symbol()))) { return true; }\r\n        else if (keccak256(abi.encodePacked(currency)) == keccak256(abi.encodePacked(upcToken.symbol()))) { return true; }\r\n        else if (keccak256(abi.encodePacked(currency)) == keccak256(abi.encodePacked(catToken.symbol()))) { return true; }\r\n        else { return false; }\r\n    }\r\n \r\n\tfunction deleteOpenBidFromPayments(uint256 index) internal returns (bool) {\r\n        require(index < payments.length, \"Array index out of bounds\");\r\n        for (uint256 i = index; i < payments.length - 1; i++) {\r\n            payments[i] = payments[i+1];\r\n        }\r\n        delete payments[payments.length-1];\r\n        payments.length--;\r\n        return true;\r\n    }\r\n \r\n}\r\n\r\n",
  "sourcePath": "/home/jquintana/PTI-admin/blockchain/contracts/Escrow.sol",
  "compiler": {
    "name": "solc",
    "version": "0.5.16+commit.9c3226ce.Emscripten.clang"
  },
  "schemaVersion": "3.3.1",
  "updatedAt": "2020-12-19T00:46:38.392Z",
  "networkType": "ethereum",
  "devdoc": {
    "methods": {}
  },
  "userdoc": {
    "methods": {}
  }
}