{
  "contractName": "Escrow",
  "abi": [
    {
      "inputs": [
        {
          "internalType": "contract BarnaToken",
          "name": "_barnaToken",
          "type": "address"
        },
        {
          "internalType": "contract FiberToken",
          "name": "_fiberToken",
          "type": "address"
        },
        {
          "internalType": "contract UpcToken",
          "name": "_upcToken",
          "type": "address"
        },
        {
          "internalType": "contract CatToken",
          "name": "_catToken",
          "type": "address"
        }
      ],
      "payable": false,
      "stateMutability": "nonpayable",
      "type": "constructor"
    },
    {
      "anonymous": false,
      "inputs": [
        {
          "indexed": false,
          "internalType": "address",
          "name": "escrowAddress",
          "type": "address"
        }
      ],
      "name": "EscrowInit",
      "type": "event"
    },
    {
      "constant": true,
      "inputs": [],
      "name": "name",
      "outputs": [
        {
          "internalType": "string",
          "name": "",
          "type": "string"
        }
      ],
      "payable": false,
      "stateMutability": "view",
      "type": "function"
    },
    {
      "constant": true,
      "inputs": [
        {
          "internalType": "uint256",
          "name": "",
          "type": "uint256"
        }
      ],
      "name": "payments",
      "outputs": [
        {
          "internalType": "string",
          "name": "bidId",
          "type": "string"
        },
        {
          "internalType": "address",
          "name": "ownerAddress",
          "type": "address"
        },
        {
          "internalType": "uint256",
          "name": "sellAmount",
          "type": "uint256"
        },
        {
          "internalType": "string",
          "name": "sellCurrency",
          "type": "string"
        }
      ],
      "payable": false,
      "stateMutability": "view",
      "type": "function"
    },
    {
      "constant": false,
      "inputs": [
        {
          "internalType": "string",
          "name": "bidId",
          "type": "string"
        },
        {
          "internalType": "uint256",
          "name": "sellAmount",
          "type": "uint256"
        },
        {
          "internalType": "string",
          "name": "sellCurrency",
          "type": "string"
        }
      ],
      "name": "createPayment",
      "outputs": [
        {
          "internalType": "bool",
          "name": "created",
          "type": "bool"
        }
      ],
      "payable": false,
      "stateMutability": "nonpayable",
      "type": "function"
    },
    {
      "constant": false,
      "inputs": [
        {
          "internalType": "string",
          "name": "bidId",
          "type": "string"
        }
      ],
      "name": "requestPayment",
      "outputs": [
        {
          "internalType": "bool",
          "name": "completed",
          "type": "bool"
        }
      ],
      "payable": false,
      "stateMutability": "nonpayable",
      "type": "function"
    },
    {
      "constant": false,
      "inputs": [
        {
          "internalType": "string",
          "name": "bidId",
          "type": "string"
        }
      ],
      "name": "getPaymentOwner",
      "outputs": [
        {
          "internalType": "address",
          "name": "ownerAddress",
          "type": "address"
        }
      ],
      "payable": false,
      "stateMutability": "nonpayable",
      "type": "function"
    },
    {
      "constant": false,
      "inputs": [
        {
          "internalType": "string",
          "name": "bidId",
          "type": "string"
        }
      ],
      "name": "getPaymentSellAmount",
      "outputs": [
        {
          "internalType": "uint256",
          "name": "sellAmount",
          "type": "uint256"
        }
      ],
      "payable": false,
      "stateMutability": "nonpayable",
      "type": "function"
    },
    {
      "constant": false,
      "inputs": [
        {
          "internalType": "uint256",
          "name": "sellAmount",
          "type": "uint256"
        },
        {
          "internalType": "string",
          "name": "sellCurrency",
          "type": "string"
        }
      ],
      "name": "verifyReceivedSellAmount",
      "outputs": [
        {
          "internalType": "bool",
          "name": "",
          "type": "bool"
        }
      ],
      "payable": false,
      "stateMutability": "nonpayable",
      "type": "function"
    },
    {
      "constant": false,
      "inputs": [
        {
          "internalType": "uint256",
          "name": "index",
          "type": "uint256"
        }
      ],
      "name": "deleteOpenBidFromPayments",
      "outputs": [
        {
          "internalType": "bool",
          "name": "",
          "type": "bool"
        }
      ],
      "payable": false,
      "stateMutability": "nonpayable",
      "type": "function"
    }
  ],
  "bytecode": "0x60806040526040518060400160405280600681526020017f457363726f770000000000000000000000000000000000000000000000000000815250600090805190602001906200005192919062000626565b503480156200005f57600080fd5b506040516200423d3803806200423d833981810160405260808110156200008557600080fd5b81019080805190602001909291908051906020019092919080519060200190929190805190602001909291905050507f8efe4fdb8cb27e356cc25ada05cc714d6bbdb24500e23de99f75873c4bc18c7730604051808273ffffffffffffffffffffffffffffffffffffffff1673ffffffffffffffffffffffffffffffffffffffff16815260200191505060405180910390a183600160006101000a81548173ffffffffffffffffffffffffffffffffffffffff021916908373ffffffffffffffffffffffffffffffffffffffff16021790555082600260006101000a81548173ffffffffffffffffffffffffffffffffffffffff021916908373ffffffffffffffffffffffffffffffffffffffff16021790555081600360006101000a81548173ffffffffffffffffffffffffffffffffffffffff021916908373ffffffffffffffffffffffffffffffffffffffff16021790555080600460006101000a81548173ffffffffffffffffffffffffffffffffffffffff021916908373ffffffffffffffffffffffffffffffffffffffff160217905550600160009054906101000a900473ffffffffffffffffffffffffffffffffffffffff1673ffffffffffffffffffffffffffffffffffffffff166370a08231306040518263ffffffff1660e01b8152600401808273ffffffffffffffffffffffffffffffffffffffff1673ffffffffffffffffffffffffffffffffffffffff16815260200191505060206040518083038186803b158015620002bb57600080fd5b505afa158015620002d0573d6000803e3d6000fd5b505050506040513d6020811015620002e757600080fd5b8101908080519060200190929190505050600581905550600260009054906101000a900473ffffffffffffffffffffffffffffffffffffffff1673ffffffffffffffffffffffffffffffffffffffff166370a08231306040518263ffffffff1660e01b8152600401808273ffffffffffffffffffffffffffffffffffffffff1673ffffffffffffffffffffffffffffffffffffffff16815260200191505060206040518083038186803b1580156200039e57600080fd5b505afa158015620003b3573d6000803e3d6000fd5b505050506040513d6020811015620003ca57600080fd5b8101908080519060200190929190505050600681905550600360009054906101000a900473ffffffffffffffffffffffffffffffffffffffff1673ffffffffffffffffffffffffffffffffffffffff166370a08231306040518263ffffffff1660e01b8152600401808273ffffffffffffffffffffffffffffffffffffffff1673ffffffffffffffffffffffffffffffffffffffff16815260200191505060206040518083038186803b1580156200048157600080fd5b505afa15801562000496573d6000803e3d6000fd5b505050506040513d6020811015620004ad57600080fd5b8101908080519060200190929190505050600781905550600460009054906101000a900473ffffffffffffffffffffffffffffffffffffffff1673ffffffffffffffffffffffffffffffffffffffff166370a08231306040518263ffffffff1660e01b8152600401808273ffffffffffffffffffffffffffffffffffffffff1673ffffffffffffffffffffffffffffffffffffffff16815260200191505060206040518083038186803b1580156200056457600080fd5b505afa15801562000579573d6000803e3d6000fd5b505050506040513d60208110156200059057600080fd5b810190808051906020019092919050505060088190555060016200061c576040517f08c379a000000000000000000000000000000000000000000000000000000000815260040180806020018281038252600e8152602001807f457363726f77204372656174656400000000000000000000000000000000000081525060200191505060405180910390fd5b50505050620006d5565b828054600181600116156101000203166002900490600052602060002090601f016020900481019282601f106200066957805160ff19168380011785556200069a565b828001600101855582156200069a579182015b82811115620006995782518255916020019190600101906200067c565b5b509050620006a99190620006ad565b5090565b620006d291905b80821115620006ce576000816000905550600101620006b4565b5090565b90565b613b5880620006e56000396000f3fe608060405234801561001057600080fd5b50600436106100875760003560e01c806387d817891161005b57806387d81789146103ac5780639521969d146104f9578063b1ce2d411461053f578063c4a53179146106b357610087565b806294b0f91461008c57806306fdde031461015b5780631913d510146101de57806354e3c1d7146102d9575b600080fd5b610145600480360360208110156100a257600080fd5b81019080803590602001906401000000008111156100bf57600080fd5b8201836020820111156100d157600080fd5b803590602001918460018302840111640100000000831117156100f357600080fd5b91908080601f016020809104026020016040519081016040528093929190818152602001838380828437600081840152601f19601f820116905080830192505050505050509192919290505050610790565b6040518082815260200191505060405180910390f35b6101636108f3565b6040518080602001828103825283818151815260200191508051906020019080838360005b838110156101a3578082015181840152602081019050610188565b50505050905090810190601f1680156101d05780820380516001836020036101000a031916815260200191505b509250505060405180910390f35b610297600480360360208110156101f457600080fd5b810190808035906020019064010000000081111561021157600080fd5b82018360208201111561022357600080fd5b8035906020019184600183028401116401000000008311171561024557600080fd5b91908080601f016020809104026020016040519081016040528093929190818152602001838380828437600081840152601f19601f820116905080830192505050505050509192919290505050610991565b604051808273ffffffffffffffffffffffffffffffffffffffff1673ffffffffffffffffffffffffffffffffffffffff16815260200191505060405180910390f35b610392600480360360208110156102ef57600080fd5b810190808035906020019064010000000081111561030c57600080fd5b82018360208201111561031e57600080fd5b8035906020019184600183028401116401000000008311171561034057600080fd5b91908080601f016020809104026020016040519081016040528093929190818152602001838380828437600081840152601f19601f820116905080830192505050505050509192919290505050610b14565b604051808215151515815260200191505060405180910390f35b6103d8600480360360208110156103c257600080fd5b8101908080359060200190929190505050610d44565b60405180806020018573ffffffffffffffffffffffffffffffffffffffff1673ffffffffffffffffffffffffffffffffffffffff16815260200184815260200180602001838103835287818151815260200191508051906020019080838360005b83811015610454578082015181840152602081019050610439565b50505050905090810190601f1680156104815780820380516001836020036101000a031916815260200191505b50838103825284818151815260200191508051906020019080838360005b838110156104ba57808201518184015260208101905061049f565b50505050905090810190601f1680156104e75780820380516001836020036101000a031916815260200191505b50965050505050505060405180910390f35b6105256004803603602081101561050f57600080fd5b8101908080359060200190929190505050610ed1565b604051808215151515815260200191505060405180910390f35b6106996004803603606081101561055557600080fd5b810190808035906020019064010000000081111561057257600080fd5b82018360208201111561058457600080fd5b803590602001918460018302840111640100000000831117156105a657600080fd5b91908080601f016020809104026020016040519081016040528093929190818152602001838380828437600081840152601f19601f820116905080830192505050505050509192919290803590602001909291908035906020019064010000000081111561061357600080fd5b82018360208201111561062557600080fd5b8035906020019184600183028401116401000000008311171561064757600080fd5b91908080601f016020809104026020016040519081016040528093929190818152602001838380828437600081840152601f19601f820116905080830192505050505050509192919290505050611102565b604051808215151515815260200191505060405180910390f35b610776600480360360408110156106c957600080fd5b8101908080359060200190929190803590602001906401000000008111156106f057600080fd5b82018360208201111561070257600080fd5b8035906020019184600183028401116401000000008311171561072457600080fd5b91908080601f016020809104026020016040519081016040528093929190818152602001838380828437600081840152601f19601f82011690508083019250505050505050919291929050505061136c565b604051808215151515815260200191505060405180910390f35b600080600090505b6009805490508110156108e857826040516020018082805190602001908083835b602083106107dc57805182526020820191506020810190506020830392506107b9565b6001836020036101000a038019825116818451168082178552505050505050905001915050604051602081830303815290604052805190602001206009828154811061082457fe5b906000526020600020906004020160000160405160200180828054600181600116156101000203166002900480156108935780601f10610871576101008083540402835291820191610893565b820191906000526020600020905b81548152906001019060200180831161087f575b50509150506040516020818303038152906040528051906020012014156108db57600981815481106108c157fe5b9060005260206000209060040201600201549150506108ee565b8080600101915050610798565b50600090505b919050565b60008054600181600116156101000203166002900480601f0160208091040260200160405190810160405280929190818152602001828054600181600116156101000203166002900480156109895780601f1061095e57610100808354040283529160200191610989565b820191906000526020600020905b81548152906001019060200180831161096c57829003601f168201915b505050505081565b600080600090505b600980549050811015610b0957826040516020018082805190602001908083835b602083106109dd57805182526020820191506020810190506020830392506109ba565b6001836020036101000a0380198251168184511680821785525050505050509050019150506040516020818303038152906040528051906020012060098281548110610a2557fe5b90600052602060002090600402016000016040516020018082805460018160011615610100020316600290048015610a945780601f10610a72576101008083540402835291820191610a94565b820191906000526020600020905b815481529060010190602001808311610a80575b5050915050604051602081830303815290604052805190602001201415610afc5760098181548110610ac257fe5b906000526020600020906004020160010160009054906101000a900473ffffffffffffffffffffffffffffffffffffffff16915050610b0f565b8080600101915050610999565b50600090505b919050565b600080600090505b600980549050811015610d3957826040516020018082805190602001908083835b60208310610b605780518252602082019150602081019050602083039250610b3d565b6001836020036101000a0380198251168184511680821785525050505050509050019150506040516020818303038152906040528051906020012060098281548110610ba857fe5b90600052602060002090600402016000016040516020018082805460018160011615610100020316600290048015610c175780601f10610bf5576101008083540402835291820191610c17565b820191906000526020600020905b815481529060010190602001808311610c03575b5050915050604051602081830303815290604052805190602001201415610d2c57610d173360098381548110610c4957fe5b90600052602060002090600402016002015460098481548110610c6857fe5b90600052602060002090600402016003018054600181600116156101000203166002900480601f016020809104026020016040519081016040528092919081815260200182805460018160011615610100020316600290048015610d0d5780601f10610ce257610100808354040283529160200191610d0d565b820191906000526020600020905b815481529060010190602001808311610cf057829003601f168201915b5050505050612239565b50610d2181610ed1565b506001915050610d3f565b8080600101915050610b1c565b50600090505b919050565b60098181548110610d5157fe5b9060005260206000209060040201600091509050806000018054600181600116156101000203166002900480601f016020809104026020016040519081016040528092919081815260200182805460018160011615610100020316600290048015610dfd5780601f10610dd257610100808354040283529160200191610dfd565b820191906000526020600020905b815481529060010190602001808311610de057829003601f168201915b5050505050908060010160009054906101000a900473ffffffffffffffffffffffffffffffffffffffff1690806002015490806003018054600181600116156101000203166002900480601f016020809104026020016040519081016040528092919081815260200182805460018160011615610100020316600290048015610ec75780601f10610e9c57610100808354040283529160200191610ec7565b820191906000526020600020905b815481529060010190602001808311610eaa57829003601f168201915b5050505050905084565b60006009805490508210610f4d576040517f08c379a00000000000000000000000000000000000000000000000000000000081526004018080602001828103825260198152602001807f417272617920696e646578206f7574206f6620626f756e64730000000000000081525060200191505060405180910390fd5b60008290505b60016009805490500381101561106d5760096001820181548110610f7357fe5b906000526020600020906004020160098281548110610f8e57fe5b906000526020600020906004020160008201816000019080546001816001161561010002031660029004610fc39291906138ab565b506001820160009054906101000a900473ffffffffffffffffffffffffffffffffffffffff168160010160006101000a81548173ffffffffffffffffffffffffffffffffffffffff021916908373ffffffffffffffffffffffffffffffffffffffff160217905550600282015481600201556003820181600301908054600181600116156101000203166002900461105c9291906138ab565b509050508080600101915050610f53565b5060096001600980549050038154811061108357fe5b9060005260206000209060040201600080820160006110a29190613932565b6001820160006101000a81549073ffffffffffffffffffffffffffffffffffffffff021916905560028201600090556003820160006110e19190613932565b505060098054809190600190036110f8919061397a565b5060019050919050565b600060011515611112848461136c565b15151461116a576040517f08c379a0000000000000000000000000000000000000000000000000000000008152600401808060200182810382526026815260200180613afe6026913960400191505060405180910390fd5b60008310156111e1576040517f08c379a00000000000000000000000000000000000000000000000000000000081526004018080602001828103825260168152602001807f73656c6c416d6f756e742063616e6e6f7420626520300000000000000000000081525060200191505060405180910390fd5b600115156111ee83612f53565b151514611263576040517f08c379a00000000000000000000000000000000000000000000000000000000081526004018080602001828103825260148152602001807f496e76616c69642073656c6c43757272656e637900000000000000000000000081525060200191505060405180910390fd5b61126b6139ac565b60405180608001604052808681526020013373ffffffffffffffffffffffffffffffffffffffff1681526020018581526020018481525090506009819080600181540180825580915050906001820390600052602060002090600402016000909192909190915060008201518160000190805190602001906112ee9291906139ea565b5060208201518160010160006101000a81548173ffffffffffffffffffffffffffffffffffffffff021916908373ffffffffffffffffffffffffffffffffffffffff16021790555060408201518160020155606082015181600301908051906020019061135c9291906139ea565b5050505060019150509392505050565b6000600160009054906101000a900473ffffffffffffffffffffffffffffffffffffffff1673ffffffffffffffffffffffffffffffffffffffff166395d89b416040518163ffffffff1660e01b815260040160006040518083038186803b1580156113d657600080fd5b505afa1580156113ea573d6000803e3d6000fd5b505050506040513d6000823e3d601f19601f82011682018060405250602081101561141457600080fd5b810190808051604051939291908464010000000082111561143457600080fd5b8382019150602082018581111561144a57600080fd5b825186600182028301116401000000008211171561146757600080fd5b8083526020830192505050908051906020019080838360005b8381101561149b578082015181840152602081019050611480565b50505050905090810190601f1680156114c85780820380516001836020036101000a031916815260200191505b506040525050506040516020018082805190602001908083835b6020831061150557805182526020820191506020810190506020830392506114e2565b6001836020036101000a03801982511681845116808217855250505050505090500191505060405160208183030381529060405280519060200120826040516020018082805190602001908083835b602083106115775780518252602082019150602081019050602083039250611554565b6001836020036101000a03801982511681845116808217855250505050505090500191505060405160208183030381529060405280519060200120141561171e57600160009054906101000a900473ffffffffffffffffffffffffffffffffffffffff1673ffffffffffffffffffffffffffffffffffffffff166370a08231306040518263ffffffff1660e01b8152600401808273ffffffffffffffffffffffffffffffffffffffff1673ffffffffffffffffffffffffffffffffffffffff16815260200191505060206040518083038186803b15801561165757600080fd5b505afa15801561166b573d6000803e3d6000fd5b505050506040513d602081101561168157600080fd5b810190808051906020019092919050505083600554011461170a576040517f08c379a00000000000000000000000000000000000000000000000000000000081526004018080602001828103825260148152602001807f5061796d656e74204e6f7420526563656976656400000000000000000000000081525060200191505060405180910390fd5b826005540160058190555060019050612233565b600260009054906101000a900473ffffffffffffffffffffffffffffffffffffffff1673ffffffffffffffffffffffffffffffffffffffff166395d89b416040518163ffffffff1660e01b815260040160006040518083038186803b15801561178657600080fd5b505afa15801561179a573d6000803e3d6000fd5b505050506040513d6000823e3d601f19601f8201168201806040525060208110156117c457600080fd5b81019080805160405193929190846401000000008211156117e457600080fd5b838201915060208201858111156117fa57600080fd5b825186600182028301116401000000008211171561181757600080fd5b8083526020830192505050908051906020019080838360005b8381101561184b578082015181840152602081019050611830565b50505050905090810190601f1680156118785780820380516001836020036101000a031916815260200191505b506040525050506040516020018082805190602001908083835b602083106118b55780518252602082019150602081019050602083039250611892565b6001836020036101000a03801982511681845116808217855250505050505090500191505060405160208183030381529060405280519060200120826040516020018082805190602001908083835b602083106119275780518252602082019150602081019050602083039250611904565b6001836020036101000a038019825116818451168082178552505050505050905001915050604051602081830303815290604052805190602001201415611ace57600260009054906101000a900473ffffffffffffffffffffffffffffffffffffffff1673ffffffffffffffffffffffffffffffffffffffff166370a08231306040518263ffffffff1660e01b8152600401808273ffffffffffffffffffffffffffffffffffffffff1673ffffffffffffffffffffffffffffffffffffffff16815260200191505060206040518083038186803b158015611a0757600080fd5b505afa158015611a1b573d6000803e3d6000fd5b505050506040513d6020811015611a3157600080fd5b8101908080519060200190929190505050836006540114611aba576040517f08c379a00000000000000000000000000000000000000000000000000000000081526004018080602001828103825260148152602001807f5061796d656e74204e6f7420526563656976656400000000000000000000000081525060200191505060405180910390fd5b826006540160068190555060019050612233565b600360009054906101000a900473ffffffffffffffffffffffffffffffffffffffff1673ffffffffffffffffffffffffffffffffffffffff166395d89b416040518163ffffffff1660e01b815260040160006040518083038186803b158015611b3657600080fd5b505afa158015611b4a573d6000803e3d6000fd5b505050506040513d6000823e3d601f19601f820116820180604052506020811015611b7457600080fd5b8101908080516040519392919084640100000000821115611b9457600080fd5b83820191506020820185811115611baa57600080fd5b8251866001820283011164010000000082111715611bc757600080fd5b8083526020830192505050908051906020019080838360005b83811015611bfb578082015181840152602081019050611be0565b50505050905090810190601f168015611c285780820380516001836020036101000a031916815260200191505b506040525050506040516020018082805190602001908083835b60208310611c655780518252602082019150602081019050602083039250611c42565b6001836020036101000a03801982511681845116808217855250505050505090500191505060405160208183030381529060405280519060200120826040516020018082805190602001908083835b60208310611cd75780518252602082019150602081019050602083039250611cb4565b6001836020036101000a038019825116818451168082178552505050505050905001915050604051602081830303815290604052805190602001201415611e7e57600360009054906101000a900473ffffffffffffffffffffffffffffffffffffffff1673ffffffffffffffffffffffffffffffffffffffff166370a08231306040518263ffffffff1660e01b8152600401808273ffffffffffffffffffffffffffffffffffffffff1673ffffffffffffffffffffffffffffffffffffffff16815260200191505060206040518083038186803b158015611db757600080fd5b505afa158015611dcb573d6000803e3d6000fd5b505050506040513d6020811015611de157600080fd5b8101908080519060200190929190505050836007540114611e6a576040517f08c379a00000000000000000000000000000000000000000000000000000000081526004018080602001828103825260148152602001807f5061796d656e74204e6f7420526563656976656400000000000000000000000081525060200191505060405180910390fd5b826007540160078190555060019050612233565b600460009054906101000a900473ffffffffffffffffffffffffffffffffffffffff1673ffffffffffffffffffffffffffffffffffffffff166395d89b416040518163ffffffff1660e01b815260040160006040518083038186803b158015611ee657600080fd5b505afa158015611efa573d6000803e3d6000fd5b505050506040513d6000823e3d601f19601f820116820180604052506020811015611f2457600080fd5b8101908080516040519392919084640100000000821115611f4457600080fd5b83820191506020820185811115611f5a57600080fd5b8251866001820283011164010000000082111715611f7757600080fd5b8083526020830192505050908051906020019080838360005b83811015611fab578082015181840152602081019050611f90565b50505050905090810190601f168015611fd85780820380516001836020036101000a031916815260200191505b506040525050506040516020018082805190602001908083835b602083106120155780518252602082019150602081019050602083039250611ff2565b6001836020036101000a03801982511681845116808217855250505050505090500191505060405160208183030381529060405280519060200120826040516020018082805190602001908083835b602083106120875780518252602082019150602081019050602083039250612064565b6001836020036101000a03801982511681845116808217855250505050505090500191505060405160208183030381529060405280519060200120141561222e57600460009054906101000a900473ffffffffffffffffffffffffffffffffffffffff1673ffffffffffffffffffffffffffffffffffffffff166370a08231306040518263ffffffff1660e01b8152600401808273ffffffffffffffffffffffffffffffffffffffff1673ffffffffffffffffffffffffffffffffffffffff16815260200191505060206040518083038186803b15801561216757600080fd5b505afa15801561217b573d6000803e3d6000fd5b505050506040513d602081101561219157600080fd5b810190808051906020019092919050505083600854011461221a576040517f08c379a00000000000000000000000000000000000000000000000000000000081526004018080602001828103825260148152602001807f5061796d656e74204e6f7420526563656976656400000000000000000000000081525060200191505060405180910390fd5b826008540160088190555060019050612233565b600090505b92915050565b6000600160009054906101000a900473ffffffffffffffffffffffffffffffffffffffff1673ffffffffffffffffffffffffffffffffffffffff166395d89b416040518163ffffffff1660e01b815260040160006040518083038186803b1580156122a357600080fd5b505afa1580156122b7573d6000803e3d6000fd5b505050506040513d6000823e3d601f19601f8201168201806040525060208110156122e157600080fd5b810190808051604051939291908464010000000082111561230157600080fd5b8382019150602082018581111561231757600080fd5b825186600182028301116401000000008211171561233457600080fd5b8083526020830192505050908051906020019080838360005b8381101561236857808201518184015260208101905061234d565b50505050905090810190601f1680156123955780820380516001836020036101000a031916815260200191505b506040525050506040516020018082805190602001908083835b602083106123d257805182526020820191506020810190506020830392506123af565b6001836020036101000a03801982511681845116808217855250505050505090500191505060405160208183030381529060405280519060200120826040516020018082805190602001908083835b602083106124445780518252602082019150602081019050602083039250612421565b6001836020036101000a03801982511681845116808217855250505050505090500191505060405160208183030381529060405280519060200120141561257e57600160009054906101000a900473ffffffffffffffffffffffffffffffffffffffff1673ffffffffffffffffffffffffffffffffffffffff1663a9059cbb85856040518363ffffffff1660e01b8152600401808373ffffffffffffffffffffffffffffffffffffffff1673ffffffffffffffffffffffffffffffffffffffff16815260200182815260200192505050602060405180830381600087803b15801561252e57600080fd5b505af1158015612542573d6000803e3d6000fd5b505050506040513d602081101561255857600080fd5b810190808051906020019092919050505050826005540360058190555060019050612f4c565b600260009054906101000a900473ffffffffffffffffffffffffffffffffffffffff1673ffffffffffffffffffffffffffffffffffffffff166395d89b416040518163ffffffff1660e01b815260040160006040518083038186803b1580156125e657600080fd5b505afa1580156125fa573d6000803e3d6000fd5b505050506040513d6000823e3d601f19601f82011682018060405250602081101561262457600080fd5b810190808051604051939291908464010000000082111561264457600080fd5b8382019150602082018581111561265a57600080fd5b825186600182028301116401000000008211171561267757600080fd5b8083526020830192505050908051906020019080838360005b838110156126ab578082015181840152602081019050612690565b50505050905090810190601f1680156126d85780820380516001836020036101000a031916815260200191505b506040525050506040516020018082805190602001908083835b6020831061271557805182526020820191506020810190506020830392506126f2565b6001836020036101000a03801982511681845116808217855250505050505090500191505060405160208183030381529060405280519060200120826040516020018082805190602001908083835b602083106127875780518252602082019150602081019050602083039250612764565b6001836020036101000a0380198251168184511680821785525050505050509050019150506040516020818303038152906040528051906020012014156128c157600260009054906101000a900473ffffffffffffffffffffffffffffffffffffffff1673ffffffffffffffffffffffffffffffffffffffff1663a9059cbb85856040518363ffffffff1660e01b8152600401808373ffffffffffffffffffffffffffffffffffffffff1673ffffffffffffffffffffffffffffffffffffffff16815260200182815260200192505050602060405180830381600087803b15801561287157600080fd5b505af1158015612885573d6000803e3d6000fd5b505050506040513d602081101561289b57600080fd5b810190808051906020019092919050505050826006540360068190555060019050612f4c565b600360009054906101000a900473ffffffffffffffffffffffffffffffffffffffff1673ffffffffffffffffffffffffffffffffffffffff166395d89b416040518163ffffffff1660e01b815260040160006040518083038186803b15801561292957600080fd5b505afa15801561293d573d6000803e3d6000fd5b505050506040513d6000823e3d601f19601f82011682018060405250602081101561296757600080fd5b810190808051604051939291908464010000000082111561298757600080fd5b8382019150602082018581111561299d57600080fd5b82518660018202830111640100000000821117156129ba57600080fd5b8083526020830192505050908051906020019080838360005b838110156129ee5780820151818401526020810190506129d3565b50505050905090810190601f168015612a1b5780820380516001836020036101000a031916815260200191505b506040525050506040516020018082805190602001908083835b60208310612a585780518252602082019150602081019050602083039250612a35565b6001836020036101000a03801982511681845116808217855250505050505090500191505060405160208183030381529060405280519060200120826040516020018082805190602001908083835b60208310612aca5780518252602082019150602081019050602083039250612aa7565b6001836020036101000a038019825116818451168082178552505050505050905001915050604051602081830303815290604052805190602001201415612c0457600360009054906101000a900473ffffffffffffffffffffffffffffffffffffffff1673ffffffffffffffffffffffffffffffffffffffff1663a9059cbb85856040518363ffffffff1660e01b8152600401808373ffffffffffffffffffffffffffffffffffffffff1673ffffffffffffffffffffffffffffffffffffffff16815260200182815260200192505050602060405180830381600087803b158015612bb457600080fd5b505af1158015612bc8573d6000803e3d6000fd5b505050506040513d6020811015612bde57600080fd5b810190808051906020019092919050505050826007540360078190555060019050612f4c565b600460009054906101000a900473ffffffffffffffffffffffffffffffffffffffff1673ffffffffffffffffffffffffffffffffffffffff166395d89b416040518163ffffffff1660e01b815260040160006040518083038186803b158015612c6c57600080fd5b505afa158015612c80573d6000803e3d6000fd5b505050506040513d6000823e3d601f19601f820116820180604052506020811015612caa57600080fd5b8101908080516040519392919084640100000000821115612cca57600080fd5b83820191506020820185811115612ce057600080fd5b8251866001820283011164010000000082111715612cfd57600080fd5b8083526020830192505050908051906020019080838360005b83811015612d31578082015181840152602081019050612d16565b50505050905090810190601f168015612d5e5780820380516001836020036101000a031916815260200191505b506040525050506040516020018082805190602001908083835b60208310612d9b5780518252602082019150602081019050602083039250612d78565b6001836020036101000a03801982511681845116808217855250505050505090500191505060405160208183030381529060405280519060200120826040516020018082805190602001908083835b60208310612e0d5780518252602082019150602081019050602083039250612dea565b6001836020036101000a038019825116818451168082178552505050505050905001915050604051602081830303815290604052805190602001201415612f4757600460009054906101000a900473ffffffffffffffffffffffffffffffffffffffff1673ffffffffffffffffffffffffffffffffffffffff1663a9059cbb85856040518363ffffffff1660e01b8152600401808373ffffffffffffffffffffffffffffffffffffffff1673ffffffffffffffffffffffffffffffffffffffff16815260200182815260200192505050602060405180830381600087803b158015612ef757600080fd5b505af1158015612f0b573d6000803e3d6000fd5b505050506040513d6020811015612f2157600080fd5b810190808051906020019092919050505050826008540360088190555060019050612f4c565b600090505b9392505050565b6000600160009054906101000a900473ffffffffffffffffffffffffffffffffffffffff1673ffffffffffffffffffffffffffffffffffffffff166395d89b416040518163ffffffff1660e01b815260040160006040518083038186803b158015612fbd57600080fd5b505afa158015612fd1573d6000803e3d6000fd5b505050506040513d6000823e3d601f19601f820116820180604052506020811015612ffb57600080fd5b810190808051604051939291908464010000000082111561301b57600080fd5b8382019150602082018581111561303157600080fd5b825186600182028301116401000000008211171561304e57600080fd5b8083526020830192505050908051906020019080838360005b83811015613082578082015181840152602081019050613067565b50505050905090810190601f1680156130af5780820380516001836020036101000a031916815260200191505b506040525050506040516020018082805190602001908083835b602083106130ec57805182526020820191506020810190506020830392506130c9565b6001836020036101000a03801982511681845116808217855250505050505090500191505060405160208183030381529060405280519060200120826040516020018082805190602001908083835b6020831061315e578051825260208201915060208101905060208303925061313b565b6001836020036101000a0380198251168184511680821785525050505050509050019150506040516020818303038152906040528051906020012014156131a857600190506138a6565b600260009054906101000a900473ffffffffffffffffffffffffffffffffffffffff1673ffffffffffffffffffffffffffffffffffffffff166395d89b416040518163ffffffff1660e01b815260040160006040518083038186803b15801561321057600080fd5b505afa158015613224573d6000803e3d6000fd5b505050506040513d6000823e3d601f19601f82011682018060405250602081101561324e57600080fd5b810190808051604051939291908464010000000082111561326e57600080fd5b8382019150602082018581111561328457600080fd5b82518660018202830111640100000000821117156132a157600080fd5b8083526020830192505050908051906020019080838360005b838110156132d55780820151818401526020810190506132ba565b50505050905090810190601f1680156133025780820380516001836020036101000a031916815260200191505b506040525050506040516020018082805190602001908083835b6020831061333f578051825260208201915060208101905060208303925061331c565b6001836020036101000a03801982511681845116808217855250505050505090500191505060405160208183030381529060405280519060200120826040516020018082805190602001908083835b602083106133b1578051825260208201915060208101905060208303925061338e565b6001836020036101000a0380198251168184511680821785525050505050509050019150506040516020818303038152906040528051906020012014156133fb57600190506138a6565b600360009054906101000a900473ffffffffffffffffffffffffffffffffffffffff1673ffffffffffffffffffffffffffffffffffffffff166395d89b416040518163ffffffff1660e01b815260040160006040518083038186803b15801561346357600080fd5b505afa158015613477573d6000803e3d6000fd5b505050506040513d6000823e3d601f19601f8201168201806040525060208110156134a157600080fd5b81019080805160405193929190846401000000008211156134c157600080fd5b838201915060208201858111156134d757600080fd5b82518660018202830111640100000000821117156134f457600080fd5b8083526020830192505050908051906020019080838360005b8381101561352857808201518184015260208101905061350d565b50505050905090810190601f1680156135555780820380516001836020036101000a031916815260200191505b506040525050506040516020018082805190602001908083835b60208310613592578051825260208201915060208101905060208303925061356f565b6001836020036101000a03801982511681845116808217855250505050505090500191505060405160208183030381529060405280519060200120826040516020018082805190602001908083835b6020831061360457805182526020820191506020810190506020830392506135e1565b6001836020036101000a03801982511681845116808217855250505050505090500191505060405160208183030381529060405280519060200120141561364e57600190506138a6565b600460009054906101000a900473ffffffffffffffffffffffffffffffffffffffff1673ffffffffffffffffffffffffffffffffffffffff166395d89b416040518163ffffffff1660e01b815260040160006040518083038186803b1580156136b657600080fd5b505afa1580156136ca573d6000803e3d6000fd5b505050506040513d6000823e3d601f19601f8201168201806040525060208110156136f457600080fd5b810190808051604051939291908464010000000082111561371457600080fd5b8382019150602082018581111561372a57600080fd5b825186600182028301116401000000008211171561374757600080fd5b8083526020830192505050908051906020019080838360005b8381101561377b578082015181840152602081019050613760565b50505050905090810190601f1680156137a85780820380516001836020036101000a031916815260200191505b506040525050506040516020018082805190602001908083835b602083106137e557805182526020820191506020810190506020830392506137c2565b6001836020036101000a03801982511681845116808217855250505050505090500191505060405160208183030381529060405280519060200120826040516020018082805190602001908083835b602083106138575780518252602082019150602081019050602083039250613834565b6001836020036101000a0380198251168184511680821785525050505050509050019150506040516020818303038152906040528051906020012014156138a157600190506138a6565b600090505b919050565b828054600181600116156101000203166002900490600052602060002090601f016020900481019282601f106138e45780548555613921565b8280016001018555821561392157600052602060002091601f016020900482015b82811115613920578254825591600101919060010190613905565b5b50905061392e9190613a6a565b5090565b50805460018160011615610100020316600290046000825580601f106139585750613977565b601f0160209004906000526020600020908101906139769190613a6a565b5b50565b8154818355818111156139a7576004028160040283600052602060002091820191016139a69190613a8f565b5b505050565b604051806080016040528060608152602001600073ffffffffffffffffffffffffffffffffffffffff16815260200160008152602001606081525090565b828054600181600116156101000203166002900490600052602060002090601f016020900481019282601f10613a2b57805160ff1916838001178555613a59565b82800160010185558215613a59579182015b82811115613a58578251825591602001919060010190613a3d565b5b509050613a669190613a6a565b5090565b613a8c91905b80821115613a88576000816000905550600101613a70565b5090565b90565b613afa91905b80821115613af65760008082016000613aae9190613932565b6001820160006101000a81549073ffffffffffffffffffffffffffffffffffffffff02191690556002820160009055600382016000613aed9190613932565b50600401613a95565b5090565b9056fe457363726f773a2048617665206e6f74207265636569766564202773656c6c416d6f756e7427a265627a7a72315820b8de6b0fe5e0de33e8392077b33815e0265bfd4a90e31deac7e0a7348c4be9a864736f6c63430005100032",
  "source": "pragma solidity >=0.4.22 <0.7.0;\r\n\r\nimport \"./BarnaToken.sol\";\r\nimport \"./FiberToken.sol\";\r\nimport \"./UpcToken.sol\";\r\nimport \"./CatToken.sol\";\r\n\r\ncontract Escrow {\r\n\r\n    string public name = \"Escrow\";\r\n    \r\n    BarnaToken private barnaToken;\r\n    FiberToken private fiberToken;\r\n    UpcToken private upcToken;\r\n    CatToken private catToken;\r\n    \r\n    uint256 private balanceBNC;\r\n    uint256 private balanceFBC;\r\n    uint256 private balanceUPC;\r\n    uint256 private balanceCTC;\r\n    \r\n\tevent EscrowInit(address escrowAddress);\r\n \r\n    struct openBidData {\r\n        string bidId;\r\n        address ownerAddress;\r\n        uint256 sellAmount;\r\n\t\tstring sellCurrency;\r\n    }\r\n    \r\n    openBidData[] public payments;\r\n    \t\r\n\tconstructor(BarnaToken _barnaToken, FiberToken _fiberToken, UpcToken _upcToken, CatToken _catToken) public {\r\n        emit EscrowInit(address(this));\r\n\t\t\r\n\t\t// payments = new openBidData[](maxSize);\r\n\t\t// availableCryptocurrencies = [\"BNC\", \"FBC\", \"UPC\", \"CTC\"];\r\n\t\t\r\n\t\tbarnaToken = _barnaToken;\r\n\t\tfiberToken = _fiberToken;\r\n\t\tupcToken = _upcToken;\r\n\t\tcatToken = _catToken;\r\n\t\t\r\n\t\tbalanceBNC = barnaToken.balanceOf(address(this));\r\n\t\tbalanceFBC = fiberToken.balanceOf(address(this));\r\n\t\tbalanceUPC = upcToken.balanceOf(address(this));\r\n\t\tbalanceCTC = catToken.balanceOf(address(this));\r\n\t\t\r\n\t\trequire(true, \"Escrow Created\");\r\n    }\r\n\r\n    function createPayment(string memory bidId, uint256 sellAmount, string memory sellCurrency) public returns (bool created) { \r\n        /* Verify that Escrow balanceOf of working token has increased by sellAmount */\r\n        require(verifyReceivedSellAmount(sellAmount, sellCurrency) == true, \"Escrow: Have not received 'sellAmount'\");\r\n        require(sellAmount >= 0, \"sellAmount cannot be 0\");\r\n        require(isValidCurrency(sellCurrency) == true, \"Invalid sellCurrency\");\r\n\t\t/* Add new openBid data to the main array */\r\n        openBidData memory bid = openBidData(bidId, msg.sender, sellAmount, sellCurrency);\r\n        payments.push(bid);\r\n\t\treturn true;\r\n    }\r\n    \r\n    // TO DO: Add verification method to check if the SELL transfer from acceptingUser has been done\r\n    function requestPayment(string memory bidId) public returns (bool completed) {\r\n        for (uint256 i = 0; i < payments.length; i++) { \r\n            if (keccak256(abi.encodePacked(payments[i].bidId)) == keccak256(abi.encodePacked(bidId))) {\r\n\t\t\t\t/* Send staked 'sellAmount' consisting of the SELL transfer from the owner user to the user accepting the open bid 'bidId' */\r\n\t\t\t\tsendPaymentToRequestingUser(msg.sender, payments[i].sellAmount, payments[i].sellCurrency);\r\n\t\t\t\t/* Delete this openBid data from the main array once completely traded */\r\n\t\t\t\tdeleteOpenBidFromPayments(i);\r\n                return true;\r\n            }\r\n        }\r\n        return false;\r\n    }\r\n    \r\n    function getPaymentOwner(string memory bidId) public returns (address ownerAddress) {\r\n        for (uint256 i = 0; i < payments.length; i++) { \r\n            if (keccak256(abi.encodePacked(payments[i].bidId)) == keccak256(abi.encodePacked(bidId))) { return payments[i].ownerAddress; }\r\n        }\r\n        return address(0);\r\n    }\r\n    \r\n   function getPaymentSellAmount(string memory bidId) public returns (uint256 sellAmount) {\r\n        for (uint256 i = 0; i < payments.length; i++) { \r\n            if (keccak256(abi.encodePacked(payments[i].bidId)) == keccak256(abi.encodePacked(bidId))) { return payments[i].sellAmount; }\r\n        }\r\n        return 0; // CAUTION!!\r\n    }\r\n   \r\n    function verifyReceivedSellAmount(uint256 sellAmount, string memory sellCurrency) public returns (bool) {\r\n        if (keccak256(abi.encodePacked(sellCurrency)) == keccak256(abi.encodePacked(barnaToken.symbol()))) { \r\n            require(balanceBNC + sellAmount == barnaToken.balanceOf(address(this)), \"Payment Not Received\");\r\n            balanceBNC = balanceBNC + sellAmount;\r\n            return true;\r\n        }\r\n        else if (keccak256(abi.encodePacked(sellCurrency)) == keccak256(abi.encodePacked(fiberToken.symbol()))) { \r\n            require(balanceFBC + sellAmount == fiberToken.balanceOf(address(this)), \"Payment Not Received\");\r\n            balanceFBC = balanceFBC + sellAmount;\r\n            return true;\r\n        }\r\n        else if (keccak256(abi.encodePacked(sellCurrency)) == keccak256(abi.encodePacked(upcToken.symbol()))) { \r\n            require(balanceUPC + sellAmount == upcToken.balanceOf(address(this)), \"Payment Not Received\");\r\n            balanceUPC = balanceUPC + sellAmount;\r\n            return true;\r\n        }\r\n        else if (keccak256(abi.encodePacked(sellCurrency)) == keccak256(abi.encodePacked(catToken.symbol()))) { \r\n            require(balanceCTC + sellAmount == catToken.balanceOf(address(this)), \"Payment Not Received\");\r\n            balanceCTC = balanceCTC + sellAmount;\r\n            return true;\r\n        }\r\n        return false;\r\n    }\r\n\t\r\n\tfunction sendPaymentToRequestingUser(address receiver, uint256 sellAmount, string memory sellCurrency) internal returns (bool) {\r\n\t\tif (keccak256(abi.encodePacked(sellCurrency)) == keccak256(abi.encodePacked(barnaToken.symbol()))) { \r\n\t\t\tbarnaToken.transfer(receiver, sellAmount);\r\n\t\t\tbalanceBNC = balanceBNC - sellAmount;\r\n            return true;\r\n        }\r\n        else if (keccak256(abi.encodePacked(sellCurrency)) == keccak256(abi.encodePacked(fiberToken.symbol()))) { \r\n            fiberToken.transfer(receiver, sellAmount);\r\n            balanceFBC = balanceFBC - sellAmount;\r\n            return true;\r\n        }\r\n        else if (keccak256(abi.encodePacked(sellCurrency)) == keccak256(abi.encodePacked(upcToken.symbol()))) { \r\n            upcToken.transfer(receiver, sellAmount);\r\n            balanceUPC = balanceUPC - sellAmount;\r\n            return true;\r\n        }\r\n        else if (keccak256(abi.encodePacked(sellCurrency)) == keccak256(abi.encodePacked(catToken.symbol()))) { \r\n\t\t\tcatToken.transfer(receiver, sellAmount);\r\n            balanceCTC = balanceCTC - sellAmount;\r\n            return true;\r\n        }\r\n\t\treturn false;\r\n\t}\r\n\t\r\n\tfunction isValidCurrency(string memory currency) internal returns (bool) {\r\n        if (keccak256(abi.encodePacked(currency)) == keccak256(abi.encodePacked(barnaToken.symbol()))) { return true; }\r\n        else if (keccak256(abi.encodePacked(currency)) == keccak256(abi.encodePacked(fiberToken.symbol()))) { return true; }\r\n        else if (keccak256(abi.encodePacked(currency)) == keccak256(abi.encodePacked(upcToken.symbol()))) { return true; }\r\n        else if (keccak256(abi.encodePacked(currency)) == keccak256(abi.encodePacked(catToken.symbol()))) { return true; }\r\n        else { return false; }\r\n    }\r\n \r\n\tfunction deleteOpenBidFromPayments(uint256 index) public returns (bool) {\r\n        require(index < payments.length, \"Array index out of bounds\");\r\n        for (uint256 i = index; i < payments.length - 1; i++) {\r\n            payments[i] = payments[i+1];\r\n        }\r\n        delete payments[payments.length-1];\r\n        payments.length--;\r\n        return true;\r\n    }\r\n \r\n}\r\n",
  "sourcePath": "/c/Users/josep/Documents/Projects/PTI-Code/src/blockchain/contracts/Escrow.sol",
  "compiler": {
    "name": "solc",
    "version": "0.5.16+commit.9c3226ce.Emscripten.clang"
  },
  "schemaVersion": "3.4.10",
  "updatedAt": "2022-10-16T10:40:59.653Z",
  "networkType": "ethereum",
  "devdoc": {
    "methods": {}
  },
  "userdoc": {
    "methods": {}
  }
}